{
    "contractName": "SBT",
    "abi": [
        {
            "inputs": [],
            "stateMutability": "nonpayable",
            "type": "constructor"
        },
        {
            "anonymous": false,
            "inputs": [
                {
                    "indexed": false,
                    "internalType": "uint256",
                    "name": "_soul_id_to_burn",
                    "type": "uint256"
                }
            ],
            "name": "Burn",
            "type": "event"
        },
        {
            "anonymous": false,
            "inputs": [
                {
                    "indexed": false,
                    "internalType": "uint256",
                    "name": "_soul_id",
                    "type": "uint256"
                }
            ],
            "name": "Claim",
            "type": "event"
        },
        {
            "anonymous": false,
            "inputs": [
                {
                    "indexed": false,
                    "internalType": "uint256",
                    "name": "_soul_id",
                    "type": "uint256"
                }
            ],
            "name": "Mint",
            "type": "event"
        },
        {
            "anonymous": false,
            "inputs": [
                {
                    "indexed": false,
                    "internalType": "uint256",
                    "name": "_soul_id",
                    "type": "uint256"
                }
            ],
            "name": "MintAchievement",
            "type": "event"
        },
        {
            "anonymous": false,
            "inputs": [
                {
                    "indexed": false,
                    "internalType": "address",
                    "name": "_new_address",
                    "type": "address"
                }
            ],
            "name": "SetAchevementsContractAddress",
            "type": "event"
        },
        {
            "anonymous": false,
            "inputs": [
                {
                    "indexed": false,
                    "internalType": "uint256",
                    "name": "_soul_id_to_update",
                    "type": "uint256"
                }
            ],
            "name": "Update",
            "type": "event"
        },
        {
            "inputs": [],
            "name": "burn",
            "outputs": [],
            "stateMutability": "nonpayable",
            "type": "function"
        },
        {
            "inputs": [
                {
                    "components": [
                        {
                            "internalType": "bytes32",
                            "name": "github_hash",
                            "type": "bytes32"
                        },
                        {
                            "internalType": "bytes32",
                            "name": "email_address_hash",
                            "type": "bytes32"
                        }
                    ],
                    "internalType": "struct SBT.PersonalDataHashed",
                    "name": "_soulData",
                    "type": "tuple"
                }
            ],
            "name": "claim",
            "outputs": [],
            "stateMutability": "nonpayable",
            "type": "function"
        },
        {
            "inputs": [
                {
                    "internalType": "uint256",
                    "name": "_soul_id",
                    "type": "uint256"
                }
            ],
            "name": "getOwner",
            "outputs": [
                {
                    "internalType": "address",
                    "name": "",
                    "type": "address"
                }
            ],
            "stateMutability": "view",
            "type": "function"
        },
        {
            "inputs": [
                {
                    "internalType": "address",
                    "name": "_soul",
                    "type": "address"
                }
            ],
            "name": "getSoul",
            "outputs": [
                {
                    "components": [
                        {
                            "internalType": "uint256",
                            "name": "soul_id",
                            "type": "uint256"
                        },
                        {
                            "components": [
                                {
                                    "internalType": "bytes32",
                                    "name": "github_hash",
                                    "type": "bytes32"
                                },
                                {
                                    "internalType": "bytes32",
                                    "name": "email_address_hash",
                                    "type": "bytes32"
                                }
                            ],
                            "internalType": "struct SBT.PersonalDataHashed",
                            "name": "hashedData",
                            "type": "tuple"
                        }
                    ],
                    "internalType": "struct SBT.Soul",
                    "name": "",
                    "type": "tuple"
                }
            ],
            "stateMutability": "view",
            "type": "function"
        },
        {
            "inputs": [
                {
                    "internalType": "address",
                    "name": "_soul",
                    "type": "address"
                }
            ],
            "name": "getUserId",
            "outputs": [
                {
                    "internalType": "uint256",
                    "name": "",
                    "type": "uint256"
                }
            ],
            "stateMutability": "view",
            "type": "function"
        },
        {
            "inputs": [
                {
                    "internalType": "address",
                    "name": "_soul",
                    "type": "address"
                }
            ],
            "name": "hasSoul",
            "outputs": [
                {
                    "internalType": "bool",
                    "name": "",
                    "type": "bool"
                }
            ],
            "stateMutability": "view",
            "type": "function"
        },
        {
            "inputs": [],
            "name": "kAchevementsContract",
            "outputs": [
                {
                    "internalType": "address",
                    "name": "",
                    "type": "address"
                }
            ],
            "stateMutability": "view",
            "type": "function"
        },
        {
            "inputs": [
                {
                    "internalType": "address",
                    "name": "_soul_address",
                    "type": "address"
                },
                {
                    "internalType": "uint256",
                    "name": "_soul_id",
                    "type": "uint256"
                }
            ],
            "name": "mint",
            "outputs": [],
            "stateMutability": "nonpayable",
            "type": "function"
        },
        {
            "inputs": [],
            "name": "operator",
            "outputs": [
                {
                    "internalType": "address",
                    "name": "",
                    "type": "address"
                }
            ],
            "stateMutability": "view",
            "type": "function"
        },
        {
            "inputs": [
                {
                    "internalType": "address",
                    "name": "_new_address",
                    "type": "address"
                }
            ],
            "name": "setAchevementsContractAddress",
            "outputs": [],
            "stateMutability": "nonpayable",
            "type": "function"
        },
        {
            "inputs": [],
            "name": "verifyDataCorrectness",
            "outputs": [
                {
                    "components": [
                        {
                            "internalType": "bytes32",
                            "name": "github_hash",
                            "type": "bytes32"
                        },
                        {
                            "internalType": "bytes32",
                            "name": "email_address_hash",
                            "type": "bytes32"
                        }
                    ],
                    "internalType": "struct SBT.PersonalDataHashed",
                    "name": "",
                    "type": "tuple"
                }
            ],
            "stateMutability": "view",
            "type": "function"
        }
    ],
    "bytecode": "6080604052600180546001600160a01b031916738016619281f888d011c84d2e2a5348d9417c775b17905534801561003657600080fd5b50600080546001600160a01b031916331790556109e2806100586000396000f3fe608060405234801561001057600080fd5b50600436106100a95760003560e01c806366cfe97f1161007157806366cfe97f14610174578063886fc93f146101ab578063bdd75202146101be578063c41a360a146101f9578063df8d81591461020c578063f72aabf31461021f57600080fd5b806328f36fe7146100ae5780632b956ff71461010b57806340c10f191461012c57806344df8e7014610141578063570ca73514610149575b600080fd5b60408051808201825260008082526020918201819052338152600382528281205481526004825282902082518084018452600182015480825260029092015490830190815283519182525191810191909152015b60405180910390f35b61011e6101193660046108be565b610232565b604051908152602001610102565b61013f61013a3660046108e0565b610303565b005b61013f61047b565b60005461015c906001600160a01b031681565b6040516001600160a01b039091168152602001610102565b6101876101823660046108be565b61053b565b60408051825181526020928301518051848301529092015190820152606001610102565b61013f6101b936600461090a565b6105ce565b6101e96101cc3660046108be565b6001600160a01b0316600090815260036020526040902054151590565b6040519015158152602001610102565b61015c610207366004610967565b61071e565b60015461015c906001600160a01b031681565b61013f61022d3660046108be565b6107aa565b3360009081526003602090815260408083205480845260029092528220546001600160a01b031661027e5760405162461bcd60e51b815260040161027590610980565b60405180910390fd5b6001546001600160a01b031633146102e65760405162461bcd60e51b815260206004820152602560248201527f4f6e6c7920616368696576656d656e7420636f6e74726163742063616e207669604482015264195dc81a5960da1b6064820152608401610275565b50506001600160a01b031660009081526003602052604090205490565b60008181526002602052604090205481906001600160a01b0316156103585760405162461bcd60e51b815260206004820152600b60248201526a536f756c2065786973747360a81b6044820152606401610275565b60008181526005602052604090205460ff16156103b75760405162461bcd60e51b815260206004820152601f60248201527f536f756c206973206d696e7465642c20627574206e6f7420636c61696d6564006044820152606401610275565b6000546001600160a01b031633146104115760405162461bcd60e51b815260206004820181905260248201527f4f6e6c79206f70657261746f722063616e206d696e74206e657720736f756c736044820152606401610275565b6001600160a01b03831660009081526003602090815260408083208590558483526005825291829020805460ff1916600117905590518381527f07883703ed0e86588a40d76551c92f8a4b329e3bf19765e0e6749473c1a8466591015b60405180910390a1505050565b336000908152600360209081526040808320548084526002909252909120546001600160a01b03166104bf5760405162461bcd60e51b815260040161027590610980565b336000908152600360209081526040808320805480855260048452828520858155600181018690556002908101869055918590559083529281902080546001600160a01b0319169055518281527fb90306ad06b2a6ff86ddc9327db583062895ef6540e62dc50add009db5b356eb910160405180910390a15050565b610543610868565b6001600160a01b038216600090815260036020526040812054900361057a5760405162461bcd60e51b815260040161027590610980565b506001600160a01b0316600090815260036020908152604080832054835260048252918290208251808401845281548152835180850190945260018201548452600290910154838301529081019190915290565b336000908152600360209081526040808320548084526002909252909120546001600160a01b0316156106435760405162461bcd60e51b815260206004820152601760248201527f536f756c20697320616c726561647920636c61696d65640000000000000000006044820152606401610275565b60008181526005602052604090205460ff166106935760405162461bcd60e51b815260206004820152600f60248201526e139bdb881b5a5b9d1959081cdbdd5b608a1b6044820152606401610275565b3360008181526003602090815260408083205480845260058352818420805460ff19169055600280845282852080546001600160a01b03191690961790955560048352928190208381558651600182015591860151919093015590517f7bb2b3c10797baccb6f8c4791f1edd6ca2f0d028ee0eda64b01a9a57e3a653f79061046e9083815260200190565b600080546001600160a01b0316331461078e5760405162461bcd60e51b815260206004820152602c60248201527f4f6e6c79207468697320636f6e74726163742063616e2076696577207468697360448201526b20686173686564206461746160a01b6064820152608401610275565b506000908152600260205260409020546001600160a01b031690565b6000546001600160a01b031633146108145760405162461bcd60e51b815260206004820152602760248201527f4f6e6c79207468697320636f6e74726163742063616e207365742074686973206044820152666164647265737360c81b6064820152608401610275565b600180546001600160a01b0319166001600160a01b0383169081179091556040519081527f0763c88eaa6a598acce6051f1d0326944c2b7166cc9512b51414a5aadab51a9c9060200160405180910390a150565b60405180604001604052806000815260200161089d604051806040016040528060008019168152602001600080191681525090565b905290565b80356001600160a01b03811681146108b957600080fd5b919050565b6000602082840312156108d057600080fd5b6108d9826108a2565b9392505050565b600080604083850312156108f357600080fd5b6108fc836108a2565b946020939093013593505050565b60006040828403121561091c57600080fd5b6040516040810181811067ffffffffffffffff8211171561094d57634e487b7160e01b600052604160045260246000fd5b604052823581526020928301359281019290925250919050565b60006020828403121561097957600080fd5b5035919050565b60208082526012908201527114dbdd5b08191bd95cdb89dd08195e1a5cdd60721b60408201526060019056fea26469706673582212206a7d322bc3ee2f3af3b975198401bfcad289f318c8bed5dd0e1fb2e2de8159e164736f6c63430008110033",
    "sourcePath": "c:/Users/admin/SBT Project/git@github.comTheBestID/contracts/contracts/sbt.sol",
    "compiler": {
        "name": "solc",
        "version": "0.8.17+commit.8df45f5f"
    },
    "functionHashes": {
        "burn()": "44df8e70",
        "claim((bytes32,bytes32))": "886fc93f",
        "getOwner(uint256)": "c41a360a",
        "getSoul(address)": "66cfe97f",
        "getUserId(address)": "2b956ff7",
        "hasSoul(address)": "bdd75202",
        "kAchevementsContract()": "df8d8159",
        "mint(address,uint256)": "40c10f19",
        "operator()": "570ca735",
        "setAchevementsContractAddress(address)": "f72aabf3",
        "verifyDataCorrectness()": "28f36fe7"
    },
    "gasEstimates": {
        "creation": {
            "codeDepositCost": "506000",
            "executionCost": "49014",
            "totalCost": "555014"
        },
        "external": {
            "burn()": "52231",
            "claim((bytes32,bytes32))": "125172",
            "getOwner(uint256)": "4700",
            "getSoul(address)": "11498",
            "getUserId(address)": "9094",
            "hasSoul(address)": "2593",
            "kAchevementsContract()": "2425",
            "mint(address,uint256)": "54466",
            "operator()": "2426",
            "setAchevementsContractAddress(address)": "27874",
            "verifyDataCorrectness()": "6757"
        },
        "internal": {
            "hashPersonalData(struct SBT.PersonalData memory)": "infinite"
        }
    }
}