{
    "contractName": "SBT_achievement",
    "abi": [
        {
            "inputs": [],
            "stateMutability": "nonpayable",
            "type": "constructor"
        },
        {
            "anonymous": false,
            "inputs": [
                {
                    "indexed": false,
                    "internalType": "uint256",
                    "name": "achievement_id",
                    "type": "uint256"
                }
            ],
            "name": "Accept",
            "type": "event"
        },
        {
            "anonymous": false,
            "inputs": [
                {
                    "indexed": false,
                    "internalType": "uint256",
                    "name": "achievement_id",
                    "type": "uint256"
                }
            ],
            "name": "Burn",
            "type": "event"
        },
        {
            "anonymous": false,
            "inputs": [
                {
                    "indexed": false,
                    "internalType": "uint256",
                    "name": "achievement_id",
                    "type": "uint256"
                }
            ],
            "name": "Mint",
            "type": "event"
        },
        {
            "anonymous": false,
            "inputs": [
                {
                    "indexed": false,
                    "internalType": "uint256",
                    "name": "achievement_id",
                    "type": "uint256"
                }
            ],
            "name": "Update",
            "type": "event"
        },
        {
            "anonymous": false,
            "inputs": [
                {
                    "indexed": false,
                    "internalType": "uint256",
                    "name": "achievement_id",
                    "type": "uint256"
                }
            ],
            "name": "Verify",
            "type": "event"
        },
        {
            "inputs": [
                {
                    "internalType": "uint256",
                    "name": "_achievementId",
                    "type": "uint256"
                }
            ],
            "name": "acceptAchievement",
            "outputs": [],
            "stateMutability": "nonpayable",
            "type": "function"
        },
        {
            "inputs": [
                {
                    "internalType": "uint256",
                    "name": "_achievementId",
                    "type": "uint256"
                }
            ],
            "name": "burn",
            "outputs": [],
            "stateMutability": "nonpayable",
            "type": "function"
        },
        {
            "inputs": [
                {
                    "internalType": "uint256",
                    "name": "_achievementId",
                    "type": "uint256"
                },
                {
                    "internalType": "bool",
                    "name": "_newStatus",
                    "type": "bool"
                }
            ],
            "name": "changeAchievementVerification",
            "outputs": [],
            "stateMutability": "nonpayable",
            "type": "function"
        },
        {
            "inputs": [
                {
                    "internalType": "uint256",
                    "name": "_achievementId",
                    "type": "uint256"
                }
            ],
            "name": "getAchievementInfo",
            "outputs": [
                {
                    "components": [
                        {
                            "internalType": "uint256",
                            "name": "achievement_id",
                            "type": "uint256"
                        },
                        {
                            "internalType": "uint256",
                            "name": "achievement_type",
                            "type": "uint256"
                        },
                        {
                            "internalType": "uint256",
                            "name": "issuer",
                            "type": "uint256"
                        },
                        {
                            "internalType": "bool",
                            "name": "can_owner_be_changed",
                            "type": "bool"
                        },
                        {
                            "internalType": "uint256",
                            "name": "owner",
                            "type": "uint256"
                        },
                        {
                            "internalType": "bool",
                            "name": "is_achievement_accepted",
                            "type": "bool"
                        },
                        {
                            "internalType": "uint256",
                            "name": "verifier",
                            "type": "uint256"
                        },
                        {
                            "internalType": "bool",
                            "name": "is_verified",
                            "type": "bool"
                        },
                        {
                            "internalType": "string",
                            "name": "data_address",
                            "type": "string"
                        }
                    ],
                    "internalType": "struct SBT_achievement.Achievement",
                    "name": "",
                    "type": "tuple"
                }
            ],
            "stateMutability": "view",
            "type": "function"
        },
        {
            "inputs": [
                {
                    "internalType": "address",
                    "name": "_issuer",
                    "type": "address"
                }
            ],
            "name": "getAchievementsOfIssuer",
            "outputs": [
                {
                    "internalType": "uint256[]",
                    "name": "",
                    "type": "uint256[]"
                }
            ],
            "stateMutability": "view",
            "type": "function"
        },
        {
            "inputs": [
                {
                    "internalType": "address",
                    "name": "_owner",
                    "type": "address"
                }
            ],
            "name": "getAchievementsOfOwner",
            "outputs": [
                {
                    "internalType": "uint256[]",
                    "name": "",
                    "type": "uint256[]"
                }
            ],
            "stateMutability": "view",
            "type": "function"
        },
        {
            "inputs": [],
            "name": "kSBTContract",
            "outputs": [
                {
                    "internalType": "address",
                    "name": "",
                    "type": "address"
                }
            ],
            "stateMutability": "view",
            "type": "function"
        },
        {
            "inputs": [
                {
                    "components": [
                        {
                            "internalType": "uint256",
                            "name": "achievement_id",
                            "type": "uint256"
                        },
                        {
                            "internalType": "uint256",
                            "name": "achievement_type",
                            "type": "uint256"
                        },
                        {
                            "internalType": "uint256",
                            "name": "issuer",
                            "type": "uint256"
                        },
                        {
                            "internalType": "bool",
                            "name": "can_owner_be_changed",
                            "type": "bool"
                        },
                        {
                            "internalType": "uint256",
                            "name": "owner",
                            "type": "uint256"
                        },
                        {
                            "internalType": "bool",
                            "name": "is_achievement_accepted",
                            "type": "bool"
                        },
                        {
                            "internalType": "uint256",
                            "name": "verifier",
                            "type": "uint256"
                        },
                        {
                            "internalType": "bool",
                            "name": "is_verified",
                            "type": "bool"
                        },
                        {
                            "internalType": "string",
                            "name": "data_address",
                            "type": "string"
                        }
                    ],
                    "internalType": "struct SBT_achievement.Achievement",
                    "name": "_achievementData",
                    "type": "tuple"
                }
            ],
            "name": "mint",
            "outputs": [],
            "stateMutability": "nonpayable",
            "type": "function"
        },
        {
            "inputs": [],
            "name": "operator",
            "outputs": [
                {
                    "internalType": "address",
                    "name": "",
                    "type": "address"
                }
            ],
            "stateMutability": "view",
            "type": "function"
        },
        {
            "inputs": [
                {
                    "internalType": "uint256",
                    "name": "_achievementId",
                    "type": "uint256"
                },
                {
                    "internalType": "address",
                    "name": "_newOwner",
                    "type": "address"
                }
            ],
            "name": "updateOwner",
            "outputs": [],
            "stateMutability": "nonpayable",
            "type": "function"
        }
    ],
    "bytecode": "6080604052600480546001600160a01b031916738016619281f888d011c84d2e2a5348d9417c775b17905534801561003657600080fd5b50600380546001600160a01b03199081163317909155600454600580549092166001600160a01b0391909116179055611457806100746000396000f3fe608060405234801561001057600080fd5b506004361061009e5760003560e01c80637192711f116100665780637192711f1461013f57806376e1f68a14610152578063a78c0d5214610165578063b85aa60514610178578063fb17cac91461018b57600080fd5b806303251df4146100a357806342966c68146100cc578063434881aa146100e1578063570ca735146100f4578063688d89031461011f575b600080fd5b6100b66100b1366004611035565b61019e565b6040516100c39190611057565b60405180910390f35b6100df6100da36600461109b565b6102fc565b005b6100df6100ef36600461109b565b6105dc565b600354610107906001600160a01b031681565b6040516001600160a01b0390911681526020016100c3565b61013261012d36600461109b565b610708565b6040516100c391906110fa565b6100df61014d36600461118e565b610a96565b6100b6610160366004611035565b610c9f565b6100df610173366004611297565b610d58565b600454610107906001600160a01b031681565b6100df61019936600461136e565b610e8f565b6003546060906001600160a01b03163314806101c25750336001600160a01b038316145b6102245760405162461bcd60e51b815260206004820152602860248201527f4f6e6c79206f70657261746f72206f72206f776e65722063616e20676574207460448201526768697320696e666f60c01b60648201526084015b60405180910390fd5b600554604051632b956ff760e01b81526001600160a01b038481166004830152600292600092911690632b956ff7906024015b602060405180830381865afa158015610274573d6000803e3d6000fd5b505050506040513d601f19601f820116820180604052508101906102989190611391565b81526020019081526020016000208054806020026020016040519081016040528092919081815260200182805480156102f057602002820191906000526020600020905b8154815260200190600101908083116102dc575b50505050509050919050565b60008181526020819052604090819020600201546005549151632b956ff760e01b815233600482015290916001600160a01b031690632b956ff790602401602060405180830381865afa158015610357573d6000803e3d6000fd5b505050506040513d601f19601f8201168201806040525081019061037b9190611391565b146103d65760405162461bcd60e51b815260206004820152602560248201527f4f6e6c79206973737565722063616e2064656c65746520616e20616368696576604482015264195b595b9d60da1b606482015260840161021b565b60005b600082815260208181526040808320600201548352600190915290205481101561048c576000828152602081815260408083206002015483526001909152902080548290811061042b5761042b6113aa565b9060005260206000200154820361047a576000828152602081815260408083206002015483526001909152902080548290811061046a5761046a6113aa565b600091825260208220015561048c565b80610484816113c0565b9150506103d9565b5060005b600082815260208181526040808320600401548352600290915290205481101561054357600082815260208181526040808320600401548352600290915290208054829081106104e2576104e26113aa565b906000526020600020015482036105315760008281526020818152604080832060040154835260029091529020805482908110610521576105216113aa565b6000918252602082200155610543565b8061053b816113c0565b915050610490565b506000818152602081905260408120818155600181018290556002810182905560038101805460ff199081169091556004820183905560058201805482169055600682018390556007820180549091169055906105a36008830182610fc3565b50506040518181527fb90306ad06b2a6ff86ddc9327db583062895ef6540e62dc50add009db5b356eb906020015b60405180910390a150565b600081815260208190526040908190206004908101546005549251632b956ff760e01b81523392810192909252916001600160a01b031690632b956ff790602401602060405180830381865afa15801561063a573d6000803e3d6000fd5b505050506040513d601f19601f8201168201806040525081019061065e9190611391565b146106ba5760405162461bcd60e51b815260206004820152602660248201527f4f6e6c79206f776e65722063616e2061636365707420746869732061636869656044820152651d995b595b9d60d21b606482015260840161021b565b60008181526020819052604090819020600501805460ff19166001179055517fa573f6e77cec35b255a3fb35b673473461473d63e293d50c5eba0d7d18942383906105d19083815260200190565b61075d6040518061012001604052806000815260200160008152602001600081526020016000151581526020016000815260200160001515815260200160008152602001600015158152602001606081525090565b6003546001600160a01b03163314806107f2575060008281526020819052604090819020600201546005549151632b956ff760e01b815233600482015290916001600160a01b031690632b956ff790602401602060405180830381865afa1580156107cc573d6000803e3d6000fd5b505050506040513d601f19601f820116820180604052508101906107f09190611391565b145b8061087c5750600082815260208190526040908190206004908101546005549251632b956ff760e01b81523392810192909252916001600160a01b031690632b956ff790602401602060405180830381865afa158015610856573d6000803e3d6000fd5b505050506040513d601f19601f8201168201806040525081019061087a9190611391565b145b80610903575060008281526020819052604090819020600601546005549151632b956ff760e01b815233600482015290916001600160a01b031690632b956ff790602401602060405180830381865afa1580156108dd573d6000803e3d6000fd5b505050506040513d601f19601f820116820180604052508101906109019190611391565b145b61097f5760405162461bcd60e51b815260206004820152604160248201527f4f6e6c79206f70657261746f722c206973737565722c206f776e6572206f722060448201527f76657269666965722063616e2067657420616368696576656d656e7420696e666064820152606f60f81b608482015260a40161021b565b6000828152602081815260409182902082516101208101845281548152600182015492810192909252600281015492820192909252600382015460ff908116151560608301526004830154608083015260058301548116151560a0830152600683015460c0830152600783015416151560e082015260088201805491929161010084019190610a0d906113e7565b80601f0160208091040260200160405190810160405280929190818152602001828054610a39906113e7565b8015610a865780601f10610a5b57610100808354040283529160200191610a86565b820191906000526020600020905b815481529060010190602001808311610a6957829003601f168201915b5050505050815250509050919050565b60008281526020819052604090819020600201546005549151632b956ff760e01b815233600482015290916001600160a01b031690632b956ff790602401602060405180830381865afa158015610af1573d6000803e3d6000fd5b505050506040513d601f19601f82011682018060405250810190610b159190611391565b14610b625760405162461bcd60e51b815260206004820152601f60248201527f4f6e6c79206973737565722063616e206368616e676520616e206f776e657200604482015260640161021b565b60008281526020819052604090206003015460ff16610bd85760405162461bcd60e51b815260206004820152602c60248201527f4f776e6572206f66207468697320616368696576656d656e742063616e206e6f60448201526b1d0818994818da185b99d95960a21b606482015260840161021b565b600554604051632b956ff760e01b81526001600160a01b03838116600483015290911690632b956ff790602401602060405180830381865afa158015610c22573d6000803e3d6000fd5b505050506040513d601f19601f82011682018060405250810190610c469190611391565b6000838152602081815260409182902060048101939093556003909201805460ff19169055518381527f164f7b2ab803097dab5e39f06d2e4f3c3ddc5d4171abbdcc3e76443b8359c7f591015b60405180910390a15050565b6003546060906001600160a01b0316331480610cc35750336001600160a01b038316145b610d215760405162461bcd60e51b815260206004820152602960248201527f4f6e6c79206f70657261746f72206f72206973737565722063616e20676574206044820152687468697320696e666f60b81b606482015260840161021b565b600554604051632b956ff760e01b81526001600160a01b038481166004830152600192600092911690632b956ff790602401610257565b6040818101516005549151632b956ff760e01b815233600482015290916001600160a01b031690632b956ff790602401602060405180830381865afa158015610da5573d6000803e3d6000fd5b505050506040513d601f19601f82011682018060405250810190610dc99190611391565b14610e165760405162461bcd60e51b815260206004820152601960248201527f4f6e6c7920796f752063616e20626520616e2069737375657200000000000000604482015260640161021b565b60408082015160009081526001602081815283832085518154808501835591855282852090910155608085015183526002815283832085518154938401825590845292200155815190517f07883703ed0e86588a40d76551c92f8a4b329e3bf19765e0e6749473c1a84665916105d19190815260200190565b60008281526020819052604090819020600601546005549151632b956ff760e01b815233600482015290916001600160a01b031690632b956ff790602401602060405180830381865afa158015610eea573d6000803e3d6000fd5b505050506040513d601f19601f82011682018060405250810190610f0e9190611391565b14610f775760405162461bcd60e51b815260206004820152603360248201527f4f6e6c792076657269666965722063616e20766572696679206f7220756e76656044820152721c9a599e48185b881858da1a595d995b595b9d606a1b606482015260840161021b565b60008281526020818152604091829020600701805460ff191684151517905590518381527f67906c359406b656ede2f92b8a4d3d5682460884db38c6dff19a96ecd68ee64c9101610c93565b508054610fcf906113e7565b6000825580601f10610fdf575050565b601f016020900490600052602060002090810190610ffd9190611000565b50565b5b808211156110155760008155600101611001565b5090565b80356001600160a01b038116811461103057600080fd5b919050565b60006020828403121561104757600080fd5b61105082611019565b9392505050565b6020808252825182820181905260009190848201906040850190845b8181101561108f57835183529284019291840191600101611073565b50909695505050505050565b6000602082840312156110ad57600080fd5b5035919050565b6000815180845260005b818110156110da576020818501810151868301820152016110be565b506000602082860101526020601f19601f83011685010191505092915050565b602081528151602082015260208201516040820152604082015160608201526000606083015161112e608084018215159052565b50608083015160a083015260a083015161114c60c084018215159052565b5060c083015160e083015260e083015161010061116c8185018315159052565b8401516101208481015290506111866101408401826110b4565b949350505050565b600080604083850312156111a157600080fd5b823591506111b160208401611019565b90509250929050565b634e487b7160e01b600052604160045260246000fd5b604051610120810167ffffffffffffffff811182821017156111f4576111f46111ba565b60405290565b8035801515811461103057600080fd5b600082601f83011261121b57600080fd5b813567ffffffffffffffff80821115611236576112366111ba565b604051601f8301601f19908116603f0116810190828211818310171561125e5761125e6111ba565b8160405283815286602085880101111561127757600080fd5b836020870160208301376000602085830101528094505050505092915050565b6000602082840312156112a957600080fd5b813567ffffffffffffffff808211156112c157600080fd5b9083019061012082860312156112d657600080fd5b6112de6111d0565b823581526020830135602082015260408301356040820152611302606084016111fa565b60608201526080830135608082015261131d60a084016111fa565b60a082015260c083013560c082015261133860e084016111fa565b60e0820152610100808401358381111561135157600080fd5b61135d8882870161120a565b918301919091525095945050505050565b6000806040838503121561138157600080fd5b823591506111b1602084016111fa565b6000602082840312156113a357600080fd5b5051919050565b634e487b7160e01b600052603260045260246000fd5b6000600182016113e057634e487b7160e01b600052601160045260246000fd5b5060010190565b600181811c908216806113fb57607f821691505b60208210810361141b57634e487b7160e01b600052602260045260246000fd5b5091905056fea2646970667358221220e6445d88c9440411ace4f6768923a882bd2e3cd1776554215a853792b0c52a5364736f6c63430008110033",
    "sourcePath": "c:/Users/admin/SBT Project/git@github.comTheBestID/contracts/contracts/sbt-achievements.sol",
    "compiler": {
        "name": "solc",
        "version": "0.8.17+commit.8df45f5f"
    },
    "functionHashes": {
        "acceptAchievement(uint256)": "434881aa",
        "burn(uint256)": "42966c68",
        "changeAchievementVerification(uint256,bool)": "fb17cac9",
        "getAchievementInfo(uint256)": "688d8903",
        "getAchievementsOfIssuer(address)": "76e1f68a",
        "getAchievementsOfOwner(address)": "03251df4",
        "kSBTContract()": "b85aa605",
        "mint((uint256,uint256,uint256,bool,uint256,bool,uint256,bool,string))": "a78c0d52",
        "operator()": "570ca735",
        "updateOwner(uint256,address)": "7192711f"
    },
    "gasEstimates": {
        "creation": {
            "codeDepositCost": "1041400",
            "executionCost": "75911",
            "totalCost": "1117311"
        },
        "external": {
            "acceptAchievement(uint256)": "infinite",
            "burn(uint256)": "infinite",
            "changeAchievementVerification(uint256,bool)": "infinite",
            "getAchievementInfo(uint256)": "infinite",
            "getAchievementsOfIssuer(address)": "infinite",
            "getAchievementsOfOwner(address)": "infinite",
            "kSBTContract()": "2403",
            "mint((uint256,uint256,uint256,bool,uint256,bool,uint256,bool,string))": "infinite",
            "operator()": "2404",
            "updateOwner(uint256,address)": "infinite"
        }
    }
}