{
  "abi": [
    {
      "inputs": [],
      "stateMutability": "nonpayable",
      "type": "constructor"
    },
    {
      "anonymous": false,
      "inputs": [
        {
          "indexed": false,
          "internalType": "uint256",
          "name": "_soul_id_to_burn",
          "type": "uint256"
        }
      ],
      "name": "Burn",
      "type": "event"
    },
    {
      "anonymous": false,
      "inputs": [
        {
          "indexed": false,
          "internalType": "uint256",
          "name": "_soul_id",
          "type": "uint256"
        }
      ],
      "name": "Claim",
      "type": "event"
    },
    {
      "anonymous": false,
      "inputs": [
        {
          "indexed": false,
          "internalType": "uint256",
          "name": "_soul_id",
          "type": "uint256"
        }
      ],
      "name": "Mint",
      "type": "event"
    },
    {
      "anonymous": false,
      "inputs": [
        {
          "indexed": false,
          "internalType": "uint256",
          "name": "_soul_id_to_update",
          "type": "uint256"
        }
      ],
      "name": "Update",
      "type": "event"
    },
    {
      "inputs": [],
      "name": "burn",
      "outputs": [],
      "stateMutability": "nonpayable",
      "type": "function"
    },
    {
      "inputs": [
        {
          "components": [
            {
              "internalType": "bytes32",
              "name": "github_hash",
              "type": "bytes32"
            },
            {
              "internalType": "bytes32",
              "name": "email_address_hash",
              "type": "bytes32"
            }
          ],
          "internalType": "struct SBT.PersonalDataHashed",
          "name": "_soulData",
          "type": "tuple"
        }
      ],
      "name": "claim",
      "outputs": [],
      "stateMutability": "nonpayable",
      "type": "function"
    },
    {
      "inputs": [
        {
          "internalType": "uint256",
          "name": "_soul_id",
          "type": "uint256"
        }
      ],
      "name": "getOwner",
      "outputs": [
        {
          "internalType": "address",
          "name": "",
          "type": "address"
        }
      ],
      "stateMutability": "view",
      "type": "function"
    },
    {
      "inputs": [
        {
          "internalType": "address",
          "name": "_soul",
          "type": "address"
        }
      ],
      "name": "getSoul",
      "outputs": [
        {
          "components": [
            {
              "internalType": "uint256",
              "name": "soul_id",
              "type": "uint256"
            },
            {
              "components": [
                {
                  "internalType": "bytes32",
                  "name": "github_hash",
                  "type": "bytes32"
                },
                {
                  "internalType": "bytes32",
                  "name": "email_address_hash",
                  "type": "bytes32"
                }
              ],
              "internalType": "struct SBT.PersonalDataHashed",
              "name": "hashedData",
              "type": "tuple"
            }
          ],
          "internalType": "struct SBT.Soul",
          "name": "",
          "type": "tuple"
        }
      ],
      "stateMutability": "view",
      "type": "function"
    },
    {
      "inputs": [
        {
          "internalType": "address",
          "name": "_soul",
          "type": "address"
        }
      ],
      "name": "hasSoul",
      "outputs": [
        {
          "internalType": "bool",
          "name": "",
          "type": "bool"
        }
      ],
      "stateMutability": "view",
      "type": "function"
    },
    {
      "inputs": [
        {
          "internalType": "address",
          "name": "_soul_address",
          "type": "address"
        },
        {
          "internalType": "uint256",
          "name": "_soul_id",
          "type": "uint256"
        }
      ],
      "name": "mint",
      "outputs": [],
      "stateMutability": "nonpayable",
      "type": "function"
    },
    {
      "inputs": [],
      "name": "operator",
      "outputs": [
        {
          "internalType": "address",
          "name": "",
          "type": "address"
        }
      ],
      "stateMutability": "view",
      "type": "function"
    },
    {
      "inputs": [
        {
          "components": [
            {
              "internalType": "bytes32",
              "name": "github_hash",
              "type": "bytes32"
            },
            {
              "internalType": "bytes32",
              "name": "email_address_hash",
              "type": "bytes32"
            }
          ],
          "internalType": "struct SBT.PersonalDataHashed",
          "name": "_newSoulData",
          "type": "tuple"
        }
      ],
      "name": "update",
      "outputs": [],
      "stateMutability": "nonpayable",
      "type": "function"
    },
    {
      "inputs": [
        {
          "components": [
            {
              "internalType": "string",
              "name": "github_url",
              "type": "string"
            },
            {
              "internalType": "string",
              "name": "email_address",
              "type": "string"
            }
          ],
          "internalType": "struct SBT.PersonalData",
          "name": "_dataToVerify",
          "type": "tuple"
        }
      ],
      "name": "verifyDataCorrectness",
      "outputs": [
        {
          "internalType": "bool",
          "name": "",
          "type": "bool"
        }
      ],
      "stateMutability": "view",
      "type": "function"
    }
  ],
  "bytecode": "608060405234801561001057600080fd5b50600080546001600160a01b03191633179055610af3806100326000396000f3fe608060405234801561001057600080fd5b50600436106100935760003560e01c8063570ca73511610066578063570ca735146100f057806366cfe97f1461011b578063886fc93f14610152578063bdd7520214610165578063c41a360a1461019057600080fd5b806308215c541461009857806340c10f19146100c057806344df8e70146100d55780634b5c4a19146100dd575b600080fd5b6100ab6100a6366004610917565b6101a3565b60405190151581526020015b60405180910390f35b6100d36100ce3660046109da565b610218565b005b6100d3610395565b6100d36100eb366004610a04565b610464565b600054610103906001600160a01b031681565b6040516001600160a01b0390911681526020016100b7565b61012e610129366004610a53565b610532565b604080518251815260209283015180518483015290920151908201526060016100b7565b6100d3610160366004610a04565b6105e6565b6100ab610173366004610a53565b6001600160a01b0316600090815260026020526040902054151590565b61010361019e366004610a75565b610729565b336000908152600260208181526040808420548452600382528084208151808301909252600181015482529092015490820152816101e0846107b5565b905081602001518160200151146101fb575060009392505050565b815181511461020e575060009392505050565b5060019392505050565b60008181526001602052604090205481906001600160a01b0316156102725760405162461bcd60e51b815260206004820152600b60248201526a536f756c2065786973747360a81b60448201526064015b60405180910390fd5b60008181526004602052604090205460ff16156102d15760405162461bcd60e51b815260206004820152601f60248201527f536f756c206973206d696e7465642c20627574206e6f7420636c61696d6564006044820152606401610269565b6000546001600160a01b0316331461032b5760405162461bcd60e51b815260206004820181905260248201527f4f6e6c79206f70657261746f722063616e206d696e74206e657720736f756c736044820152606401610269565b6001600160a01b03831660009081526002602090815260408083208590558483526004825291829020805460ff1916600117905590518381527f07883703ed0e86588a40d76551c92f8a4b329e3bf19765e0e6749473c1a8466591015b60405180910390a1505050565b33600090815260026020526040812054908190036103ea5760405162461bcd60e51b815260206004820152601260248201527114dbdd5b08191bd95cdb89dd08195e1a5cdd60721b6044820152606401610269565b60008181526003602090815260408083208381556001808201859055600291820185905533855290835281842084905584845282529182902080546001600160a01b031916905590518281527fb90306ad06b2a6ff86ddc9327db583062895ef6540e62dc50add009db5b356eb910160405180910390a150565b336000908152600260209081526040808320548084526001909252909120546001600160a01b03166104c95760405162461bcd60e51b815260206004820152600e60248201526d4e6f20736f756c2065786973747360901b6044820152606401610269565b336000818152600260208181526040808420805485526003835281852088516001820155888401519085015594909352908152915490519081527f164f7b2ab803097dab5e39f06d2e4f3c3ddc5d4171abbdcc3e76443b8359c7f5910160405180910390a15050565b61053a61083a565b6001600160a01b03821660009081526002602052604081205490036105965760405162461bcd60e51b815260206004820152601260248201527114dbdd5b08191bd95cdb89dd08195e1a5cdd60721b6044820152606401610269565b506001600160a01b03166000908152600260208181526040808420548452600382529283902083518085018552815481528451808601909552600182015485529201548382015281019190915290565b3360009081526002602090815260408083205480845260049092529091205460ff166106465760405162461bcd60e51b815260206004820152600f60248201526e139bdb881b5a5b9d1959081cdbdd5b608a1b6044820152606401610269565b6000818152600160205260409020546001600160a01b0316156106ab5760405162461bcd60e51b815260206004820152601760248201527f536f756c20697320616c726561647920636c61696d65640000000000000000006044820152606401610269565b33600081815260026020818152604080842054808552600180845282862080546001600160a01b03191690971790965560038352938190208481558751958101959095558682015194909201939093555181815290917f7bb2b3c10797baccb6f8c4791f1edd6ca2f0d028ee0eda64b01a9a57e3a653f79101610388565b600080546001600160a01b031633146107995760405162461bcd60e51b815260206004820152602c60248201527f4f6e6c79207468697320636f6e74726163742063616e2076696577207468697360448201526b20686173686564206461746160a01b6064820152608401610269565b506000908152600160205260409020546001600160a01b031690565b604080518082019091526000808252602082015260408051808201909152600080825260208201526020808401516040516107f09201610a8e565b60408051601f198184030181529181528151602092830120838301528451905161081a9201610a8e565b60408051601f198184030181529190528051602090910120815292915050565b60405180604001604052806000815260200161086f604051806040016040528060008019168152602001600080191681525090565b905290565b634e487b7160e01b600052604160045260246000fd5b600082601f83011261089b57600080fd5b813567ffffffffffffffff808211156108b6576108b6610874565b604051601f8301601f19908116603f011681019082821181831017156108de576108de610874565b816040528381528660208588010111156108f757600080fd5b836020870160208301376000602085830101528094505050505092915050565b60006020828403121561092957600080fd5b813567ffffffffffffffff8082111561094157600080fd5b908301906040828603121561095557600080fd5b60405160408101818110838211171561097057610970610874565b60405282358281111561098257600080fd5b61098e8782860161088a565b8252506020830135828111156109a357600080fd5b6109af8782860161088a565b60208301525095945050505050565b80356001600160a01b03811681146109d557600080fd5b919050565b600080604083850312156109ed57600080fd5b6109f6836109be565b946020939093013593505050565b600060408284031215610a1657600080fd5b6040516040810181811067ffffffffffffffff82111715610a3957610a39610874565b604052823581526020928301359281019290925250919050565b600060208284031215610a6557600080fd5b610a6e826109be565b9392505050565b600060208284031215610a8757600080fd5b5035919050565b6000825160005b81811015610aaf5760208186018101518583015201610a95565b50600092019182525091905056fea2646970667358221220b46ad84ac5bb54d0edf3f29fe7e5707b797fc2df0a9c747848eb4ba6c74186be64736f6c63430008110033",
  "bytecodeSha1": "02faf3366e9a7126418bf23c2c84fabd641bca2d",
  "compiler": {
    "evm_version": "istanbul",
    "optimizer": {
      "enabled": true,
      "runs": 200
    },
    "version": "0.8.17+commit.8df45f5f"
  },
  "contractName": "SBT",
  "language": "Solidity",
  "natspec": {
    "kind": "dev",
    "methods": {},
    "version": 1
  },
  "opcodes": "PUSH1 0x80 PUSH1 0x40 MSTORE CALLVALUE DUP1 ISZERO PUSH2 0x10 JUMPI PUSH1 0x0 DUP1 REVERT JUMPDEST POP PUSH1 0x4 CALLDATASIZE LT PUSH2 0x93 JUMPI PUSH1 0x0 CALLDATALOAD PUSH1 0xE0 SHR DUP1 PUSH4 0x570CA735 GT PUSH2 0x66 JUMPI DUP1 PUSH4 0x570CA735 EQ PUSH2 0xF0 JUMPI DUP1 PUSH4 0x66CFE97F EQ PUSH2 0x11B JUMPI DUP1 PUSH4 0x886FC93F EQ PUSH2 0x152 JUMPI DUP1 PUSH4 0xBDD75202 EQ PUSH2 0x165 JUMPI DUP1 PUSH4 0xC41A360A EQ PUSH2 0x190 JUMPI PUSH1 0x0 DUP1 REVERT JUMPDEST DUP1 PUSH4 0x8215C54 EQ PUSH2 0x98 JUMPI DUP1 PUSH4 0x40C10F19 EQ PUSH2 0xC0 JUMPI DUP1 PUSH4 0x44DF8E70 EQ PUSH2 0xD5 JUMPI DUP1 PUSH4 0x4B5C4A19 EQ PUSH2 0xDD JUMPI JUMPDEST PUSH1 0x0 DUP1 REVERT JUMPDEST PUSH2 0xAB PUSH2 0xA6 CALLDATASIZE PUSH1 0x4 PUSH2 0x917 JUMP JUMPDEST PUSH2 0x1A3 JUMP JUMPDEST PUSH1 0x40 MLOAD SWAP1 ISZERO ISZERO DUP2 MSTORE PUSH1 0x20 ADD JUMPDEST PUSH1 0x40 MLOAD DUP1 SWAP2 SUB SWAP1 RETURN JUMPDEST PUSH2 0xD3 PUSH2 0xCE CALLDATASIZE PUSH1 0x4 PUSH2 0x9DA JUMP JUMPDEST PUSH2 0x218 JUMP JUMPDEST STOP JUMPDEST PUSH2 0xD3 PUSH2 0x395 JUMP JUMPDEST PUSH2 0xD3 PUSH2 0xEB CALLDATASIZE PUSH1 0x4 PUSH2 0xA04 JUMP JUMPDEST PUSH2 0x464 JUMP JUMPDEST PUSH1 0x0 SLOAD PUSH2 0x103 SWAP1 PUSH1 0x1 PUSH1 0x1 PUSH1 0xA0 SHL SUB AND DUP2 JUMP JUMPDEST PUSH1 0x40 MLOAD PUSH1 0x1 PUSH1 0x1 PUSH1 0xA0 SHL SUB SWAP1 SWAP2 AND DUP2 MSTORE PUSH1 0x20 ADD PUSH2 0xB7 JUMP JUMPDEST PUSH2 0x12E PUSH2 0x129 CALLDATASIZE PUSH1 0x4 PUSH2 0xA53 JUMP JUMPDEST PUSH2 0x532 JUMP JUMPDEST PUSH1 0x40 DUP1 MLOAD DUP3 MLOAD DUP2 MSTORE PUSH1 0x20 SWAP3 DUP4 ADD MLOAD DUP1 MLOAD DUP5 DUP4 ADD MSTORE SWAP1 SWAP3 ADD MLOAD SWAP1 DUP3 ADD MSTORE PUSH1 0x60 ADD PUSH2 0xB7 JUMP JUMPDEST PUSH2 0xD3 PUSH2 0x160 CALLDATASIZE PUSH1 0x4 PUSH2 0xA04 JUMP JUMPDEST PUSH2 0x5E6 JUMP JUMPDEST PUSH2 0xAB PUSH2 0x173 CALLDATASIZE PUSH1 0x4 PUSH2 0xA53 JUMP JUMPDEST PUSH1 0x1 PUSH1 0x1 PUSH1 0xA0 SHL SUB AND PUSH1 0x0 SWAP1 DUP2 MSTORE PUSH1 0x2 PUSH1 0x20 MSTORE PUSH1 0x40 SWAP1 KECCAK256 SLOAD ISZERO ISZERO SWAP1 JUMP JUMPDEST PUSH2 0x103 PUSH2 0x19E CALLDATASIZE PUSH1 0x4 PUSH2 0xA75 JUMP JUMPDEST PUSH2 0x729 JUMP JUMPDEST CALLER PUSH1 0x0 SWAP1 DUP2 MSTORE PUSH1 0x2 PUSH1 0x20 DUP2 DUP2 MSTORE PUSH1 0x40 DUP1 DUP5 KECCAK256 SLOAD DUP5 MSTORE PUSH1 0x3 DUP3 MSTORE DUP1 DUP5 KECCAK256 DUP2 MLOAD DUP1 DUP4 ADD SWAP1 SWAP3 MSTORE PUSH1 0x1 DUP2 ADD SLOAD DUP3 MSTORE SWAP1 SWAP3 ADD SLOAD SWAP1 DUP3 ADD MSTORE DUP2 PUSH2 0x1E0 DUP5 PUSH2 0x7B5 JUMP JUMPDEST SWAP1 POP DUP2 PUSH1 0x20 ADD MLOAD DUP2 PUSH1 0x20 ADD MLOAD EQ PUSH2 0x1FB JUMPI POP PUSH1 0x0 SWAP4 SWAP3 POP POP POP JUMP JUMPDEST DUP2 MLOAD DUP2 MLOAD EQ PUSH2 0x20E JUMPI POP PUSH1 0x0 SWAP4 SWAP3 POP POP POP JUMP JUMPDEST POP PUSH1 0x1 SWAP4 SWAP3 POP POP POP JUMP JUMPDEST PUSH1 0x0 DUP2 DUP2 MSTORE PUSH1 0x1 PUSH1 0x20 MSTORE PUSH1 0x40 SWAP1 KECCAK256 SLOAD DUP2 SWAP1 PUSH1 0x1 PUSH1 0x1 PUSH1 0xA0 SHL SUB AND ISZERO PUSH2 0x272 JUMPI PUSH1 0x40 MLOAD PUSH3 0x461BCD PUSH1 0xE5 SHL DUP2 MSTORE PUSH1 0x20 PUSH1 0x4 DUP3 ADD MSTORE PUSH1 0xB PUSH1 0x24 DUP3 ADD MSTORE PUSH11 0x536F756C20657869737473 PUSH1 0xA8 SHL PUSH1 0x44 DUP3 ADD MSTORE PUSH1 0x64 ADD JUMPDEST PUSH1 0x40 MLOAD DUP1 SWAP2 SUB SWAP1 REVERT JUMPDEST PUSH1 0x0 DUP2 DUP2 MSTORE PUSH1 0x4 PUSH1 0x20 MSTORE PUSH1 0x40 SWAP1 KECCAK256 SLOAD PUSH1 0xFF AND ISZERO PUSH2 0x2D1 JUMPI PUSH1 0x40 MLOAD PUSH3 0x461BCD PUSH1 0xE5 SHL DUP2 MSTORE PUSH1 0x20 PUSH1 0x4 DUP3 ADD MSTORE PUSH1 0x1F PUSH1 0x24 DUP3 ADD MSTORE PUSH32 0x536F756C206973206D696E7465642C20627574206E6F7420636C61696D656400 PUSH1 0x44 DUP3 ADD MSTORE PUSH1 0x64 ADD PUSH2 0x269 JUMP JUMPDEST PUSH1 0x0 SLOAD PUSH1 0x1 PUSH1 0x1 PUSH1 0xA0 SHL SUB AND CALLER EQ PUSH2 0x32B JUMPI PUSH1 0x40 MLOAD PUSH3 0x461BCD PUSH1 0xE5 SHL DUP2 MSTORE PUSH1 0x20 PUSH1 0x4 DUP3 ADD DUP2 SWAP1 MSTORE PUSH1 0x24 DUP3 ADD MSTORE PUSH32 0x4F6E6C79206F70657261746F722063616E206D696E74206E657720736F756C73 PUSH1 0x44 DUP3 ADD MSTORE PUSH1 0x64 ADD PUSH2 0x269 JUMP JUMPDEST PUSH1 0x1 PUSH1 0x1 PUSH1 0xA0 SHL SUB DUP4 AND PUSH1 0x0 SWAP1 DUP2 MSTORE PUSH1 0x2 PUSH1 0x20 SWAP1 DUP2 MSTORE PUSH1 0x40 DUP1 DUP4 KECCAK256 DUP6 SWAP1 SSTORE DUP5 DUP4 MSTORE PUSH1 0x4 DUP3 MSTORE SWAP2 DUP3 SWAP1 KECCAK256 DUP1 SLOAD PUSH1 0xFF NOT AND PUSH1 0x1 OR SWAP1 SSTORE SWAP1 MLOAD DUP4 DUP2 MSTORE PUSH32 0x7883703ED0E86588A40D76551C92F8A4B329E3BF19765E0E6749473C1A84665 SWAP2 ADD JUMPDEST PUSH1 0x40 MLOAD DUP1 SWAP2 SUB SWAP1 LOG1 POP POP POP JUMP JUMPDEST CALLER PUSH1 0x0 SWAP1 DUP2 MSTORE PUSH1 0x2 PUSH1 0x20 MSTORE PUSH1 0x40 DUP2 KECCAK256 SLOAD SWAP1 DUP2 SWAP1 SUB PUSH2 0x3EA JUMPI PUSH1 0x40 MLOAD PUSH3 0x461BCD PUSH1 0xE5 SHL DUP2 MSTORE PUSH1 0x20 PUSH1 0x4 DUP3 ADD MSTORE PUSH1 0x12 PUSH1 0x24 DUP3 ADD MSTORE PUSH18 0x14DBDD5B08191BD95CDB89DD08195E1A5CDD PUSH1 0x72 SHL PUSH1 0x44 DUP3 ADD MSTORE PUSH1 0x64 ADD PUSH2 0x269 JUMP JUMPDEST PUSH1 0x0 DUP2 DUP2 MSTORE PUSH1 0x3 PUSH1 0x20 SWAP1 DUP2 MSTORE PUSH1 0x40 DUP1 DUP4 KECCAK256 DUP4 DUP2 SSTORE PUSH1 0x1 DUP1 DUP3 ADD DUP6 SWAP1 SSTORE PUSH1 0x2 SWAP2 DUP3 ADD DUP6 SWAP1 SSTORE CALLER DUP6 MSTORE SWAP1 DUP4 MSTORE DUP2 DUP5 KECCAK256 DUP5 SWAP1 SSTORE DUP5 DUP5 MSTORE DUP3 MSTORE SWAP2 DUP3 SWAP1 KECCAK256 DUP1 SLOAD PUSH1 0x1 PUSH1 0x1 PUSH1 0xA0 SHL SUB NOT AND SWAP1 SSTORE SWAP1 MLOAD DUP3 DUP2 MSTORE PUSH32 0xB90306AD06B2A6FF86DDC9327DB583062895EF6540E62DC50ADD009DB5B356EB SWAP2 ADD PUSH1 0x40 MLOAD DUP1 SWAP2 SUB SWAP1 LOG1 POP JUMP JUMPDEST CALLER PUSH1 0x0 SWAP1 DUP2 MSTORE PUSH1 0x2 PUSH1 0x20 SWAP1 DUP2 MSTORE PUSH1 0x40 DUP1 DUP4 KECCAK256 SLOAD DUP1 DUP5 MSTORE PUSH1 0x1 SWAP1 SWAP3 MSTORE SWAP1 SWAP2 KECCAK256 SLOAD PUSH1 0x1 PUSH1 0x1 PUSH1 0xA0 SHL SUB AND PUSH2 0x4C9 JUMPI PUSH1 0x40 MLOAD PUSH3 0x461BCD PUSH1 0xE5 SHL DUP2 MSTORE PUSH1 0x20 PUSH1 0x4 DUP3 ADD MSTORE PUSH1 0xE PUSH1 0x24 DUP3 ADD MSTORE PUSH14 0x4E6F20736F756C20657869737473 PUSH1 0x90 SHL PUSH1 0x44 DUP3 ADD MSTORE PUSH1 0x64 ADD PUSH2 0x269 JUMP JUMPDEST CALLER PUSH1 0x0 DUP2 DUP2 MSTORE PUSH1 0x2 PUSH1 0x20 DUP2 DUP2 MSTORE PUSH1 0x40 DUP1 DUP5 KECCAK256 DUP1 SLOAD DUP6 MSTORE PUSH1 0x3 DUP4 MSTORE DUP2 DUP6 KECCAK256 DUP9 MLOAD PUSH1 0x1 DUP3 ADD SSTORE DUP9 DUP5 ADD MLOAD SWAP1 DUP6 ADD SSTORE SWAP5 SWAP1 SWAP4 MSTORE SWAP1 DUP2 MSTORE SWAP2 SLOAD SWAP1 MLOAD SWAP1 DUP2 MSTORE PUSH32 0x164F7B2AB803097DAB5E39F06D2E4F3C3DDC5D4171ABBDCC3E76443B8359C7F5 SWAP2 ADD PUSH1 0x40 MLOAD DUP1 SWAP2 SUB SWAP1 LOG1 POP POP JUMP JUMPDEST PUSH2 0x53A PUSH2 0x83A JUMP JUMPDEST PUSH1 0x1 PUSH1 0x1 PUSH1 0xA0 SHL SUB DUP3 AND PUSH1 0x0 SWAP1 DUP2 MSTORE PUSH1 0x2 PUSH1 0x20 MSTORE PUSH1 0x40 DUP2 KECCAK256 SLOAD SWAP1 SUB PUSH2 0x596 JUMPI PUSH1 0x40 MLOAD PUSH3 0x461BCD PUSH1 0xE5 SHL DUP2 MSTORE PUSH1 0x20 PUSH1 0x4 DUP3 ADD MSTORE PUSH1 0x12 PUSH1 0x24 DUP3 ADD MSTORE PUSH18 0x14DBDD5B08191BD95CDB89DD08195E1A5CDD PUSH1 0x72 SHL PUSH1 0x44 DUP3 ADD MSTORE PUSH1 0x64 ADD PUSH2 0x269 JUMP JUMPDEST POP PUSH1 0x1 PUSH1 0x1 PUSH1 0xA0 SHL SUB AND PUSH1 0x0 SWAP1 DUP2 MSTORE PUSH1 0x2 PUSH1 0x20 DUP2 DUP2 MSTORE PUSH1 0x40 DUP1 DUP5 KECCAK256 SLOAD DUP5 MSTORE PUSH1 0x3 DUP3 MSTORE SWAP3 DUP4 SWAP1 KECCAK256 DUP4 MLOAD DUP1 DUP6 ADD DUP6 MSTORE DUP2 SLOAD DUP2 MSTORE DUP5 MLOAD DUP1 DUP7 ADD SWAP1 SWAP6 MSTORE PUSH1 0x1 DUP3 ADD SLOAD DUP6 MSTORE SWAP3 ADD SLOAD DUP4 DUP3 ADD MSTORE DUP2 ADD SWAP2 SWAP1 SWAP2 MSTORE SWAP1 JUMP JUMPDEST CALLER PUSH1 0x0 SWAP1 DUP2 MSTORE PUSH1 0x2 PUSH1 0x20 SWAP1 DUP2 MSTORE PUSH1 0x40 DUP1 DUP4 KECCAK256 SLOAD DUP1 DUP5 MSTORE PUSH1 0x4 SWAP1 SWAP3 MSTORE SWAP1 SWAP2 KECCAK256 SLOAD PUSH1 0xFF AND PUSH2 0x646 JUMPI PUSH1 0x40 MLOAD PUSH3 0x461BCD PUSH1 0xE5 SHL DUP2 MSTORE PUSH1 0x20 PUSH1 0x4 DUP3 ADD MSTORE PUSH1 0xF PUSH1 0x24 DUP3 ADD MSTORE PUSH15 0x139BDB881B5A5B9D1959081CDBDD5B PUSH1 0x8A SHL PUSH1 0x44 DUP3 ADD MSTORE PUSH1 0x64 ADD PUSH2 0x269 JUMP JUMPDEST PUSH1 0x0 DUP2 DUP2 MSTORE PUSH1 0x1 PUSH1 0x20 MSTORE PUSH1 0x40 SWAP1 KECCAK256 SLOAD PUSH1 0x1 PUSH1 0x1 PUSH1 0xA0 SHL SUB AND ISZERO PUSH2 0x6AB JUMPI PUSH1 0x40 MLOAD PUSH3 0x461BCD PUSH1 0xE5 SHL DUP2 MSTORE PUSH1 0x20 PUSH1 0x4 DUP3 ADD MSTORE PUSH1 0x17 PUSH1 0x24 DUP3 ADD MSTORE PUSH32 0x536F756C20697320616C726561647920636C61696D6564000000000000000000 PUSH1 0x44 DUP3 ADD MSTORE PUSH1 0x64 ADD PUSH2 0x269 JUMP JUMPDEST CALLER PUSH1 0x0 DUP2 DUP2 MSTORE PUSH1 0x2 PUSH1 0x20 DUP2 DUP2 MSTORE PUSH1 0x40 DUP1 DUP5 KECCAK256 SLOAD DUP1 DUP6 MSTORE PUSH1 0x1 DUP1 DUP5 MSTORE DUP3 DUP7 KECCAK256 DUP1 SLOAD PUSH1 0x1 PUSH1 0x1 PUSH1 0xA0 SHL SUB NOT AND SWAP1 SWAP8 OR SWAP1 SWAP7 SSTORE PUSH1 0x3 DUP4 MSTORE SWAP4 DUP2 SWAP1 KECCAK256 DUP5 DUP2 SSTORE DUP8 MLOAD SWAP6 DUP2 ADD SWAP6 SWAP1 SWAP6 SSTORE DUP7 DUP3 ADD MLOAD SWAP5 SWAP1 SWAP3 ADD SWAP4 SWAP1 SWAP4 SSTORE MLOAD DUP2 DUP2 MSTORE SWAP1 SWAP2 PUSH32 0x7BB2B3C10797BACCB6F8C4791F1EDD6CA2F0D028EE0EDA64B01A9A57E3A653F7 SWAP2 ADD PUSH2 0x388 JUMP JUMPDEST PUSH1 0x0 DUP1 SLOAD PUSH1 0x1 PUSH1 0x1 PUSH1 0xA0 SHL SUB AND CALLER EQ PUSH2 0x799 JUMPI PUSH1 0x40 MLOAD PUSH3 0x461BCD PUSH1 0xE5 SHL DUP2 MSTORE PUSH1 0x20 PUSH1 0x4 DUP3 ADD MSTORE PUSH1 0x2C PUSH1 0x24 DUP3 ADD MSTORE PUSH32 0x4F6E6C79207468697320636F6E74726163742063616E20766965772074686973 PUSH1 0x44 DUP3 ADD MSTORE PUSH12 0x206861736865642064617461 PUSH1 0xA0 SHL PUSH1 0x64 DUP3 ADD MSTORE PUSH1 0x84 ADD PUSH2 0x269 JUMP JUMPDEST POP PUSH1 0x0 SWAP1 DUP2 MSTORE PUSH1 0x1 PUSH1 0x20 MSTORE PUSH1 0x40 SWAP1 KECCAK256 SLOAD PUSH1 0x1 PUSH1 0x1 PUSH1 0xA0 SHL SUB AND SWAP1 JUMP JUMPDEST PUSH1 0x40 DUP1 MLOAD DUP1 DUP3 ADD SWAP1 SWAP2 MSTORE PUSH1 0x0 DUP1 DUP3 MSTORE PUSH1 0x20 DUP3 ADD MSTORE PUSH1 0x40 DUP1 MLOAD DUP1 DUP3 ADD SWAP1 SWAP2 MSTORE PUSH1 0x0 DUP1 DUP3 MSTORE PUSH1 0x20 DUP3 ADD MSTORE PUSH1 0x20 DUP1 DUP5 ADD MLOAD PUSH1 0x40 MLOAD PUSH2 0x7F0 SWAP3 ADD PUSH2 0xA8E JUMP JUMPDEST PUSH1 0x40 DUP1 MLOAD PUSH1 0x1F NOT DUP2 DUP5 SUB ADD DUP2 MSTORE SWAP2 DUP2 MSTORE DUP2 MLOAD PUSH1 0x20 SWAP3 DUP4 ADD KECCAK256 DUP4 DUP4 ADD MSTORE DUP5 MLOAD SWAP1 MLOAD PUSH2 0x81A SWAP3 ADD PUSH2 0xA8E JUMP JUMPDEST PUSH1 0x40 DUP1 MLOAD PUSH1 0x1F NOT DUP2 DUP5 SUB ADD DUP2 MSTORE SWAP2 SWAP1 MSTORE DUP1 MLOAD PUSH1 0x20 SWAP1 SWAP2 ADD KECCAK256 DUP2 MSTORE SWAP3 SWAP2 POP POP JUMP JUMPDEST PUSH1 0x40 MLOAD DUP1 PUSH1 0x40 ADD PUSH1 0x40 MSTORE DUP1 PUSH1 0x0 DUP2 MSTORE PUSH1 0x20 ADD PUSH2 0x86F PUSH1 0x40 MLOAD DUP1 PUSH1 0x40 ADD PUSH1 0x40 MSTORE DUP1 PUSH1 0x0 DUP1 NOT AND DUP2 MSTORE PUSH1 0x20 ADD PUSH1 0x0 DUP1 NOT AND DUP2 MSTORE POP SWAP1 JUMP JUMPDEST SWAP1 MSTORE SWAP1 JUMP JUMPDEST PUSH4 0x4E487B71 PUSH1 0xE0 SHL PUSH1 0x0 MSTORE PUSH1 0x41 PUSH1 0x4 MSTORE PUSH1 0x24 PUSH1 0x0 REVERT JUMPDEST PUSH1 0x0 DUP3 PUSH1 0x1F DUP4 ADD SLT PUSH2 0x89B JUMPI PUSH1 0x0 DUP1 REVERT JUMPDEST DUP2 CALLDATALOAD PUSH8 0xFFFFFFFFFFFFFFFF DUP1 DUP3 GT ISZERO PUSH2 0x8B6 JUMPI PUSH2 0x8B6 PUSH2 0x874 JUMP JUMPDEST PUSH1 0x40 MLOAD PUSH1 0x1F DUP4 ADD PUSH1 0x1F NOT SWAP1 DUP2 AND PUSH1 0x3F ADD AND DUP2 ADD SWAP1 DUP3 DUP3 GT DUP2 DUP4 LT OR ISZERO PUSH2 0x8DE JUMPI PUSH2 0x8DE PUSH2 0x874 JUMP JUMPDEST DUP2 PUSH1 0x40 MSTORE DUP4 DUP2 MSTORE DUP7 PUSH1 0x20 DUP6 DUP9 ADD ADD GT ISZERO PUSH2 0x8F7 JUMPI PUSH1 0x0 DUP1 REVERT JUMPDEST DUP4 PUSH1 0x20 DUP8 ADD PUSH1 0x20 DUP4 ADD CALLDATACOPY PUSH1 0x0 PUSH1 0x20 DUP6 DUP4 ADD ADD MSTORE DUP1 SWAP5 POP POP POP POP POP SWAP3 SWAP2 POP POP JUMP JUMPDEST PUSH1 0x0 PUSH1 0x20 DUP3 DUP5 SUB SLT ISZERO PUSH2 0x929 JUMPI PUSH1 0x0 DUP1 REVERT JUMPDEST DUP2 CALLDATALOAD PUSH8 0xFFFFFFFFFFFFFFFF DUP1 DUP3 GT ISZERO PUSH2 0x941 JUMPI PUSH1 0x0 DUP1 REVERT JUMPDEST SWAP1 DUP4 ADD SWAP1 PUSH1 0x40 DUP3 DUP7 SUB SLT ISZERO PUSH2 0x955 JUMPI PUSH1 0x0 DUP1 REVERT JUMPDEST PUSH1 0x40 MLOAD PUSH1 0x40 DUP2 ADD DUP2 DUP2 LT DUP4 DUP3 GT OR ISZERO PUSH2 0x970 JUMPI PUSH2 0x970 PUSH2 0x874 JUMP JUMPDEST PUSH1 0x40 MSTORE DUP3 CALLDATALOAD DUP3 DUP2 GT ISZERO PUSH2 0x982 JUMPI PUSH1 0x0 DUP1 REVERT JUMPDEST PUSH2 0x98E DUP8 DUP3 DUP7 ADD PUSH2 0x88A JUMP JUMPDEST DUP3 MSTORE POP PUSH1 0x20 DUP4 ADD CALLDATALOAD DUP3 DUP2 GT ISZERO PUSH2 0x9A3 JUMPI PUSH1 0x0 DUP1 REVERT JUMPDEST PUSH2 0x9AF DUP8 DUP3 DUP7 ADD PUSH2 0x88A JUMP JUMPDEST PUSH1 0x20 DUP4 ADD MSTORE POP SWAP6 SWAP5 POP POP POP POP POP JUMP JUMPDEST DUP1 CALLDATALOAD PUSH1 0x1 PUSH1 0x1 PUSH1 0xA0 SHL SUB DUP2 AND DUP2 EQ PUSH2 0x9D5 JUMPI PUSH1 0x0 DUP1 REVERT JUMPDEST SWAP2 SWAP1 POP JUMP JUMPDEST PUSH1 0x0 DUP1 PUSH1 0x40 DUP4 DUP6 SUB SLT ISZERO PUSH2 0x9ED JUMPI PUSH1 0x0 DUP1 REVERT JUMPDEST PUSH2 0x9F6 DUP4 PUSH2 0x9BE JUMP JUMPDEST SWAP5 PUSH1 0x20 SWAP4 SWAP1 SWAP4 ADD CALLDATALOAD SWAP4 POP POP POP JUMP JUMPDEST PUSH1 0x0 PUSH1 0x40 DUP3 DUP5 SUB SLT ISZERO PUSH2 0xA16 JUMPI PUSH1 0x0 DUP1 REVERT JUMPDEST PUSH1 0x40 MLOAD PUSH1 0x40 DUP2 ADD DUP2 DUP2 LT PUSH8 0xFFFFFFFFFFFFFFFF DUP3 GT OR ISZERO PUSH2 0xA39 JUMPI PUSH2 0xA39 PUSH2 0x874 JUMP JUMPDEST PUSH1 0x40 MSTORE DUP3 CALLDATALOAD DUP2 MSTORE PUSH1 0x20 SWAP3 DUP4 ADD CALLDATALOAD SWAP3 DUP2 ADD SWAP3 SWAP1 SWAP3 MSTORE POP SWAP2 SWAP1 POP JUMP JUMPDEST PUSH1 0x0 PUSH1 0x20 DUP3 DUP5 SUB SLT ISZERO PUSH2 0xA65 JUMPI PUSH1 0x0 DUP1 REVERT JUMPDEST PUSH2 0xA6E DUP3 PUSH2 0x9BE JUMP JUMPDEST SWAP4 SWAP3 POP POP POP JUMP JUMPDEST PUSH1 0x0 PUSH1 0x20 DUP3 DUP5 SUB SLT ISZERO PUSH2 0xA87 JUMPI PUSH1 0x0 DUP1 REVERT JUMPDEST POP CALLDATALOAD SWAP2 SWAP1 POP JUMP JUMPDEST PUSH1 0x0 DUP3 MLOAD PUSH1 0x0 JUMPDEST DUP2 DUP2 LT ISZERO PUSH2 0xAAF JUMPI PUSH1 0x20 DUP2 DUP7 ADD DUP2 ADD MLOAD DUP6 DUP4 ADD MSTORE ADD PUSH2 0xA95 JUMP JUMPDEST POP PUSH1 0x0 SWAP3 ADD SWAP2 DUP3 MSTORE POP SWAP2 SWAP1 POP JUMP INVALID LOG2 PUSH5 0x6970667358 0x22 SLT KECCAK256 0xB4 PUSH11 0xD84AC5BB54D0EDF3F29FE7 0xE5 PUSH17 0x7B797FC2DF0A9C747848EB4BA6C74186BE PUSH5 0x736F6C6343 STOP ADDMOD GT STOP CALLER ",
  "sha1": "fb9bd987b9cf3fecb3abb3c4b9e8b6c5870f1b8a",
  "source": "// SPDX-License-Identifier: MIT\npragma solidity ^0.8.17;\n\n// import \"./sbt-achievements.sol\";\n\ncontract SBT {\n    modifier soulExists(uint _soul_id) {\n        require(addressOfSoul[_soul_id] != address(0), \"No soul exists\");\n        _;\n    }\n\n    modifier mintedNotClaimed(uint _soul_id) {\n        require(minted[_soul_id], \"Non minted soul\");\n        require(addressOfSoul[_soul_id] == address(0), \"Soul is already claimed\");\n        _;\n    }\n\n    modifier soulDoesntExist(uint _soul_id) {\n        require(addressOfSoul[_soul_id] == address(0), \"Soul exists\");\n        require(!minted[_soul_id], \"Soul is minted, but not claimed\");\n        _;\n    }\n\n    struct PersonalDataHashed {\n        bytes32 github_hash;\n        bytes32 email_address_hash;\n    }\n\n    struct PersonalData {\n        string github_url;\n        string email_address;\n    }\n\n    struct Soul {\n        uint soul_id;\n        PersonalDataHashed hashedData;\n    }\n\n    address public operator;\n    event Mint(uint _soul_id);\n    event Claim(uint _soul_id);\n    event Burn(uint _soul_id_to_burn);\n    event Update(uint _soul_id_to_update);\n\n    constructor() {\n        operator = msg.sender;\n    }\n\n    mapping(uint => address) private addressOfSoul; //soul_id => address of owner\n    mapping(address => uint) soulIdOfAddress; //address => soul_id\n    mapping(uint => Soul) private souls;\n    mapping(uint => bool) private minted;\n\n    // Function that hashes content of user's hashedData. Must be rewritten if PersonalData fields change.\n    function hashPersonalData(PersonalData memory _data)\n        internal\n        pure\n        returns (PersonalDataHashed memory)\n    {\n        PersonalDataHashed memory hashedData;\n        hashedData.email_address_hash = keccak256(\n            abi.encodePacked(_data.email_address)\n        );\n        hashedData.github_hash = keccak256(\n            abi.encodePacked(_data.github_url)\n        );\n        return hashedData;\n    }\n\n    // Mints the SBT for given address and with given soul_id. Can be called only by this contract.\n    function mint(address _soul_address, uint _soul_id)\n        external\n        soulDoesntExist(_soul_id)\n    {\n        require(msg.sender == operator, \"Only operator can mint new souls\");\n        soulIdOfAddress[_soul_address] = _soul_id;\n        minted[_soul_id] = true;\n        emit Mint(_soul_id);\n    }\n\n    function claim(PersonalDataHashed memory _soulData)\n        external\n        mintedNotClaimed(soulIdOfAddress[msg.sender])\n    {\n        uint _soul_id = soulIdOfAddress[msg.sender];\n        addressOfSoul[_soul_id] = msg.sender;\n        souls[_soul_id].soul_id = _soul_id;\n        souls[_soul_id].hashedData = _soulData;\n        emit Claim(_soul_id);\n    }\n\n    // Deletes SBT of msg.sender from storage.\n    function burn() external {\n        uint _soul_id_to_burn = soulIdOfAddress[msg.sender];\n        require(_soul_id_to_burn != 0, \"Soul doesn't exist\");\n        delete souls[_soul_id_to_burn];\n        delete soulIdOfAddress[msg.sender];\n        delete addressOfSoul[_soul_id_to_burn];\n        emit Burn(_soul_id_to_burn);\n    }\n\n    // Updates hashedData of msg.sender's SBT by replacing with '_newSoulData'.\n    function update(PersonalDataHashed memory _newSoulData)\n        external\n        soulExists(soulIdOfAddress[msg.sender])\n    {\n        souls[soulIdOfAddress[msg.sender]].hashedData = _newSoulData;\n        emit Update(soulIdOfAddress[msg.sender]);\n    }\n\n    // Returns true, if there is an SBT for given address.\n    function hasSoul(address _soul) external view returns (bool) {\n        return soulIdOfAddress[_soul] != 0;\n    }\n\n    // Returns SBT of given address, if there is one; otherwise throws an error.\n    function getSoul(address _soul) external view returns (Soul memory) {\n        require(soulIdOfAddress[_soul] != 0, \"Soul doesn't exist\");\n        return souls[soulIdOfAddress[_soul]];\n    }\n\n    // Returns owner of given '_soul_id', if there is one; otherwise returns NULL-address.\n    function getOwner(uint _soul_id) external view returns (address) {\n        require(\n            msg.sender == operator,\n            \"Only this contract can view this hashed data\"\n        );\n        return addressOfSoul[_soul_id];\n    }\n\n    // Allows user to verify, that their data stored in our app is it's own and doesn't change.\n    function verifyDataCorrectness(PersonalData memory _dataToVerify)\n        external\n        view\n        returns (bool)\n    {\n        PersonalDataHashed memory hashedDataFromStorage = souls[\n            soulIdOfAddress[msg.sender]\n        ].hashedData;\n        PersonalDataHashed memory hashedDataToVerify = hashPersonalData(\n            _dataToVerify\n        );\n        if (\n            hashedDataToVerify.email_address_hash !=\n            hashedDataFromStorage.email_address_hash\n        ) {\n            return false;\n        }\n        if (\n            hashedDataToVerify.github_hash !=\n            hashedDataFromStorage.github_hash\n        ) {\n            return false;\n        }\n        return true;\n    }\n}\n",
  "sourcePath": "contracts/sbt.sol",
  "type": "contract"
}