{
  "abi": [
    {
      "inputs": [],
      "stateMutability": "nonpayable",
      "type": "constructor"
    },
    {
      "anonymous": false,
      "inputs": [
        {
          "indexed": false,
          "internalType": "uint256",
          "name": "_soul_id_to_burn",
          "type": "uint256"
        }
      ],
      "name": "Burn",
      "type": "event"
    },
    {
      "anonymous": false,
      "inputs": [
        {
          "indexed": false,
          "internalType": "uint256",
          "name": "_soul_id",
          "type": "uint256"
        }
      ],
      "name": "Claim",
      "type": "event"
    },
    {
      "anonymous": false,
      "inputs": [
        {
          "indexed": false,
          "internalType": "uint256",
          "name": "_soul_id",
          "type": "uint256"
        }
      ],
      "name": "Mint",
      "type": "event"
    },
    {
      "anonymous": false,
      "inputs": [
        {
          "indexed": false,
          "internalType": "uint256",
          "name": "_soul_id",
          "type": "uint256"
        }
      ],
      "name": "MintAchievement",
      "type": "event"
    },
    {
      "anonymous": false,
      "inputs": [
        {
          "indexed": false,
          "internalType": "address",
          "name": "_new_address",
          "type": "address"
        }
      ],
      "name": "SetAchevementsContractAddress",
      "type": "event"
    },
    {
      "anonymous": false,
      "inputs": [
        {
          "indexed": false,
          "internalType": "uint256",
          "name": "_soul_id_to_update",
          "type": "uint256"
        }
      ],
      "name": "Update",
      "type": "event"
    },
    {
      "inputs": [],
      "name": "burn",
      "outputs": [],
      "stateMutability": "nonpayable",
      "type": "function"
    },
    {
      "inputs": [
        {
          "components": [
            {
              "internalType": "bytes32",
              "name": "github_hash",
              "type": "bytes32"
            },
            {
              "internalType": "bytes32",
              "name": "email_address_hash",
              "type": "bytes32"
            }
          ],
          "internalType": "struct SBT.PersonalDataHashed",
          "name": "_soulData",
          "type": "tuple"
        }
      ],
      "name": "claim",
      "outputs": [],
      "stateMutability": "nonpayable",
      "type": "function"
    },
    {
      "inputs": [
        {
          "internalType": "uint256",
          "name": "_soul_id",
          "type": "uint256"
        }
      ],
      "name": "getOwner",
      "outputs": [
        {
          "internalType": "address",
          "name": "",
          "type": "address"
        }
      ],
      "stateMutability": "view",
      "type": "function"
    },
    {
      "inputs": [
        {
          "internalType": "address",
          "name": "_soul",
          "type": "address"
        }
      ],
      "name": "getSoul",
      "outputs": [
        {
          "components": [
            {
              "internalType": "uint256",
              "name": "soul_id",
              "type": "uint256"
            },
            {
              "components": [
                {
                  "internalType": "bytes32",
                  "name": "github_hash",
                  "type": "bytes32"
                },
                {
                  "internalType": "bytes32",
                  "name": "email_address_hash",
                  "type": "bytes32"
                }
              ],
              "internalType": "struct SBT.PersonalDataHashed",
              "name": "hashedData",
              "type": "tuple"
            }
          ],
          "internalType": "struct SBT.Soul",
          "name": "",
          "type": "tuple"
        }
      ],
      "stateMutability": "view",
      "type": "function"
    },
    {
      "inputs": [
        {
          "internalType": "address",
          "name": "_soul",
          "type": "address"
        }
      ],
      "name": "hasSoul",
      "outputs": [
        {
          "internalType": "bool",
          "name": "",
          "type": "bool"
        }
      ],
      "stateMutability": "view",
      "type": "function"
    },
    {
      "inputs": [],
      "name": "kAchevementsContract",
      "outputs": [
        {
          "internalType": "address",
          "name": "",
          "type": "address"
        }
      ],
      "stateMutability": "view",
      "type": "function"
    },
    {
      "inputs": [
        {
          "internalType": "address",
          "name": "_soul_address",
          "type": "address"
        },
        {
          "internalType": "uint256",
          "name": "_soul_id",
          "type": "uint256"
        }
      ],
      "name": "mint",
      "outputs": [],
      "stateMutability": "nonpayable",
      "type": "function"
    },
    {
      "inputs": [
        {
          "components": [
            {
              "internalType": "uint256",
              "name": "achievement_id",
              "type": "uint256"
            },
            {
              "internalType": "uint256",
              "name": "achievement_type",
              "type": "uint256"
            },
            {
              "internalType": "address",
              "name": "issuer",
              "type": "address"
            },
            {
              "internalType": "bool",
              "name": "can_owner_be_changed",
              "type": "bool"
            },
            {
              "internalType": "address",
              "name": "owner",
              "type": "address"
            },
            {
              "internalType": "address",
              "name": "verifier",
              "type": "address"
            },
            {
              "internalType": "bool",
              "name": "is_verified",
              "type": "bool"
            },
            {
              "internalType": "bytes32",
              "name": "data_hash",
              "type": "bytes32"
            }
          ],
          "internalType": "struct SBT_achievement_interface.Achievement",
          "name": "_achievementData",
          "type": "tuple"
        }
      ],
      "name": "mint_achievement",
      "outputs": [],
      "stateMutability": "nonpayable",
      "type": "function"
    },
    {
      "inputs": [],
      "name": "operator",
      "outputs": [
        {
          "internalType": "address",
          "name": "",
          "type": "address"
        }
      ],
      "stateMutability": "view",
      "type": "function"
    },
    {
      "inputs": [
        {
          "internalType": "address",
          "name": "_new_address",
          "type": "address"
        }
      ],
      "name": "setAchevementsContractAddress",
      "outputs": [],
      "stateMutability": "nonpayable",
      "type": "function"
    },
    {
      "inputs": [],
      "name": "verifyDataCorrectness",
      "outputs": [
        {
          "components": [
            {
              "internalType": "bytes32",
              "name": "github_hash",
              "type": "bytes32"
            },
            {
              "internalType": "bytes32",
              "name": "email_address_hash",
              "type": "bytes32"
            }
          ],
          "internalType": "struct SBT.PersonalDataHashed",
          "name": "",
          "type": "tuple"
        }
      ],
      "stateMutability": "view",
      "type": "function"
    }
  ],
  "bytecode": "6080604052600180546001600160a01b031916738016619281f888d011c84d2e2a5348d9417c775b17905534801561003657600080fd5b50600154600280546001600160a01b03199081166001600160a01b039093169290921790556000805490911633179055610b14806100756000396000f3fe608060405234801561001057600080fd5b50600436106100a95760003560e01c806366cfe97f1161007157806366cfe97f14610166578063886fc93f1461019d578063bdd75202146101b0578063c41a360a146101eb578063df8d8159146101fe578063f72aabf31461021157600080fd5b806307a7d436146100ae57806328f36fe7146100c357806340c10f191461012057806344df8e7014610133578063570ca7351461013b575b600080fd5b6100c16100bc36600461092f565b610224565b005b60408051808201825260008082526020918201819052338152600482528281205481526005825282902082518084018452600182015480825260029092015490830190815283519182525191810191909152015b60405180910390f35b6100c161012e3660046109f0565b610370565b6100c16104e8565b60005461014e906001600160a01b031681565b6040516001600160a01b039091168152602001610117565b610179610174366004610a1a565b6105a0565b60408051825181526020928301518051848301529092015190820152606001610117565b6100c16101ab366004610a3c565b610633565b6101db6101be366004610a1a565b6001600160a01b0316600090815260046020526040902054151590565b6040519015158152602001610117565b61014e6101f9366004610a99565b61077f565b60015461014e906001600160a01b031681565b6100c161021f366004610a1a565b61080b565b336000908152600460209081526040808320548084526003909252909120546001600160a01b03166102715760405162461bcd60e51b815260040161026890610ab2565b60405180910390fd5b6002546040805163f391357760e01b81528451600482015260208501516024820152908401516001600160a01b03908116604483015260608501511515606483015260808501518116608483015260a0850151811660a483015260c0850151151560c483015260e085015160e48301529091169063f39135779061010401600060405180830381600087803b15801561030957600080fd5b505af115801561031d573d6000803e3d6000fd5b505033600090815260046020526040908190205490517fd49a4559bddcf9b3f02926936008febf67b424d2f0e30b5cbb9d954b8d7a68fb9350610364925090815260200190565b60405180910390a15050565b60008181526003602052604090205481906001600160a01b0316156103c55760405162461bcd60e51b815260206004820152600b60248201526a536f756c2065786973747360a81b6044820152606401610268565b60008181526006602052604090205460ff16156104245760405162461bcd60e51b815260206004820152601f60248201527f536f756c206973206d696e7465642c20627574206e6f7420636c61696d6564006044820152606401610268565b6000546001600160a01b0316331461047e5760405162461bcd60e51b815260206004820181905260248201527f4f6e6c79206f70657261746f722063616e206d696e74206e657720736f756c736044820152606401610268565b6001600160a01b03831660009081526004602090815260408083208590558483526006825291829020805460ff1916600117905590518381527f07883703ed0e86588a40d76551c92f8a4b329e3bf19765e0e6749473c1a8466591015b60405180910390a1505050565b336000908152600460209081526040808320548084526003909252909120546001600160a01b031661052c5760405162461bcd60e51b815260040161026890610ab2565b3360009081526004602090815260408083208054808552600584528285208581556001810186905560020185905590849055600383529281902080546001600160a01b0319169055518281527fb90306ad06b2a6ff86ddc9327db583062895ef6540e62dc50add009db5b356eb9101610364565b6105a86108c9565b6001600160a01b03821660009081526004602052604081205490036105df5760405162461bcd60e51b815260040161026890610ab2565b506001600160a01b0316600090815260046020908152604080832054835260058252918290208251808401845281548152835180850190945260018201548452600290910154838301529081019190915290565b336000908152600460209081526040808320548084526003909252909120546001600160a01b0316156106a85760405162461bcd60e51b815260206004820152601760248201527f536f756c20697320616c726561647920636c61696d65640000000000000000006044820152606401610268565b60008181526006602052604090205460ff166106f85760405162461bcd60e51b815260206004820152600f60248201526e139bdb881b5a5b9d1959081cdbdd5b608a1b6044820152606401610268565b3360008181526004602090815260408083205480845260068352818420805460ff191690556003835281842080546001600160a01b0319169095179094556005825291829020838155855160018201558582015160029091015590518281527f7bb2b3c10797baccb6f8c4791f1edd6ca2f0d028ee0eda64b01a9a57e3a653f791016104db565b600080546001600160a01b031633146107ef5760405162461bcd60e51b815260206004820152602c60248201527f4f6e6c79207468697320636f6e74726163742063616e2076696577207468697360448201526b20686173686564206461746160a01b6064820152608401610268565b506000908152600360205260409020546001600160a01b031690565b6000546001600160a01b031633146108755760405162461bcd60e51b815260206004820152602760248201527f4f6e6c79207468697320636f6e74726163742063616e207365742074686973206044820152666164647265737360c81b6064820152608401610268565b600180546001600160a01b0319166001600160a01b0383169081179091556040519081527f0763c88eaa6a598acce6051f1d0326944c2b7166cc9512b51414a5aadab51a9c9060200160405180910390a150565b6040518060400160405280600081526020016108fe604051806040016040528060008019168152602001600080191681525090565b905290565b80356001600160a01b038116811461091a57600080fd5b919050565b8035801515811461091a57600080fd5b600061010080838503121561094357600080fd5b6040519081019067ffffffffffffffff8211818310171561097457634e487b7160e01b600052604160045260246000fd5b81604052833581526020840135602082015261099260408501610903565b60408201526109a36060850161091f565b60608201526109b460808501610903565b60808201526109c560a08501610903565b60a08201526109d660c0850161091f565b60c082015260e084013560e0820152809250505092915050565b60008060408385031215610a0357600080fd5b610a0c83610903565b946020939093013593505050565b600060208284031215610a2c57600080fd5b610a3582610903565b9392505050565b600060408284031215610a4e57600080fd5b6040516040810181811067ffffffffffffffff82111715610a7f57634e487b7160e01b600052604160045260246000fd5b604052823581526020928301359281019290925250919050565b600060208284031215610aab57600080fd5b5035919050565b60208082526012908201527114dbdd5b08191bd95cdb89dd08195e1a5cdd60721b60408201526060019056fea2646970667358221220f13390c335651c8b194e903b5ac94bb04a55d5dcaa8833e5afc3bcb388b2116764736f6c63430008110033",
  "bytecodeSha1": "c99319daf560f49cae691919cf58e7a2808240b8",
  "compiler": {
    "evm_version": "istanbul",
    "optimizer": {
      "enabled": true,
      "runs": 200
    },
    "version": "0.8.17+commit.8df45f5f"
  },
  "contractName": "SBT",
  "language": "Solidity",
  "natspec": {
    "kind": "dev",
    "methods": {},
    "version": 1
  },
  "opcodes": "PUSH1 0x80 PUSH1 0x40 MSTORE CALLVALUE DUP1 ISZERO PUSH2 0x10 JUMPI PUSH1 0x0 DUP1 REVERT JUMPDEST POP PUSH1 0x4 CALLDATASIZE LT PUSH2 0xA9 JUMPI PUSH1 0x0 CALLDATALOAD PUSH1 0xE0 SHR DUP1 PUSH4 0x66CFE97F GT PUSH2 0x71 JUMPI DUP1 PUSH4 0x66CFE97F EQ PUSH2 0x166 JUMPI DUP1 PUSH4 0x886FC93F EQ PUSH2 0x19D JUMPI DUP1 PUSH4 0xBDD75202 EQ PUSH2 0x1B0 JUMPI DUP1 PUSH4 0xC41A360A EQ PUSH2 0x1EB JUMPI DUP1 PUSH4 0xDF8D8159 EQ PUSH2 0x1FE JUMPI DUP1 PUSH4 0xF72AABF3 EQ PUSH2 0x211 JUMPI PUSH1 0x0 DUP1 REVERT JUMPDEST DUP1 PUSH4 0x7A7D436 EQ PUSH2 0xAE JUMPI DUP1 PUSH4 0x28F36FE7 EQ PUSH2 0xC3 JUMPI DUP1 PUSH4 0x40C10F19 EQ PUSH2 0x120 JUMPI DUP1 PUSH4 0x44DF8E70 EQ PUSH2 0x133 JUMPI DUP1 PUSH4 0x570CA735 EQ PUSH2 0x13B JUMPI JUMPDEST PUSH1 0x0 DUP1 REVERT JUMPDEST PUSH2 0xC1 PUSH2 0xBC CALLDATASIZE PUSH1 0x4 PUSH2 0x92F JUMP JUMPDEST PUSH2 0x224 JUMP JUMPDEST STOP JUMPDEST PUSH1 0x40 DUP1 MLOAD DUP1 DUP3 ADD DUP3 MSTORE PUSH1 0x0 DUP1 DUP3 MSTORE PUSH1 0x20 SWAP2 DUP3 ADD DUP2 SWAP1 MSTORE CALLER DUP2 MSTORE PUSH1 0x4 DUP3 MSTORE DUP3 DUP2 KECCAK256 SLOAD DUP2 MSTORE PUSH1 0x5 DUP3 MSTORE DUP3 SWAP1 KECCAK256 DUP3 MLOAD DUP1 DUP5 ADD DUP5 MSTORE PUSH1 0x1 DUP3 ADD SLOAD DUP1 DUP3 MSTORE PUSH1 0x2 SWAP1 SWAP3 ADD SLOAD SWAP1 DUP4 ADD SWAP1 DUP2 MSTORE DUP4 MLOAD SWAP2 DUP3 MSTORE MLOAD SWAP2 DUP2 ADD SWAP2 SWAP1 SWAP2 MSTORE ADD JUMPDEST PUSH1 0x40 MLOAD DUP1 SWAP2 SUB SWAP1 RETURN JUMPDEST PUSH2 0xC1 PUSH2 0x12E CALLDATASIZE PUSH1 0x4 PUSH2 0x9F0 JUMP JUMPDEST PUSH2 0x370 JUMP JUMPDEST PUSH2 0xC1 PUSH2 0x4E8 JUMP JUMPDEST PUSH1 0x0 SLOAD PUSH2 0x14E SWAP1 PUSH1 0x1 PUSH1 0x1 PUSH1 0xA0 SHL SUB AND DUP2 JUMP JUMPDEST PUSH1 0x40 MLOAD PUSH1 0x1 PUSH1 0x1 PUSH1 0xA0 SHL SUB SWAP1 SWAP2 AND DUP2 MSTORE PUSH1 0x20 ADD PUSH2 0x117 JUMP JUMPDEST PUSH2 0x179 PUSH2 0x174 CALLDATASIZE PUSH1 0x4 PUSH2 0xA1A JUMP JUMPDEST PUSH2 0x5A0 JUMP JUMPDEST PUSH1 0x40 DUP1 MLOAD DUP3 MLOAD DUP2 MSTORE PUSH1 0x20 SWAP3 DUP4 ADD MLOAD DUP1 MLOAD DUP5 DUP4 ADD MSTORE SWAP1 SWAP3 ADD MLOAD SWAP1 DUP3 ADD MSTORE PUSH1 0x60 ADD PUSH2 0x117 JUMP JUMPDEST PUSH2 0xC1 PUSH2 0x1AB CALLDATASIZE PUSH1 0x4 PUSH2 0xA3C JUMP JUMPDEST PUSH2 0x633 JUMP JUMPDEST PUSH2 0x1DB PUSH2 0x1BE CALLDATASIZE PUSH1 0x4 PUSH2 0xA1A JUMP JUMPDEST PUSH1 0x1 PUSH1 0x1 PUSH1 0xA0 SHL SUB AND PUSH1 0x0 SWAP1 DUP2 MSTORE PUSH1 0x4 PUSH1 0x20 MSTORE PUSH1 0x40 SWAP1 KECCAK256 SLOAD ISZERO ISZERO SWAP1 JUMP JUMPDEST PUSH1 0x40 MLOAD SWAP1 ISZERO ISZERO DUP2 MSTORE PUSH1 0x20 ADD PUSH2 0x117 JUMP JUMPDEST PUSH2 0x14E PUSH2 0x1F9 CALLDATASIZE PUSH1 0x4 PUSH2 0xA99 JUMP JUMPDEST PUSH2 0x77F JUMP JUMPDEST PUSH1 0x1 SLOAD PUSH2 0x14E SWAP1 PUSH1 0x1 PUSH1 0x1 PUSH1 0xA0 SHL SUB AND DUP2 JUMP JUMPDEST PUSH2 0xC1 PUSH2 0x21F CALLDATASIZE PUSH1 0x4 PUSH2 0xA1A JUMP JUMPDEST PUSH2 0x80B JUMP JUMPDEST CALLER PUSH1 0x0 SWAP1 DUP2 MSTORE PUSH1 0x4 PUSH1 0x20 SWAP1 DUP2 MSTORE PUSH1 0x40 DUP1 DUP4 KECCAK256 SLOAD DUP1 DUP5 MSTORE PUSH1 0x3 SWAP1 SWAP3 MSTORE SWAP1 SWAP2 KECCAK256 SLOAD PUSH1 0x1 PUSH1 0x1 PUSH1 0xA0 SHL SUB AND PUSH2 0x271 JUMPI PUSH1 0x40 MLOAD PUSH3 0x461BCD PUSH1 0xE5 SHL DUP2 MSTORE PUSH1 0x4 ADD PUSH2 0x268 SWAP1 PUSH2 0xAB2 JUMP JUMPDEST PUSH1 0x40 MLOAD DUP1 SWAP2 SUB SWAP1 REVERT JUMPDEST PUSH1 0x2 SLOAD PUSH1 0x40 DUP1 MLOAD PUSH4 0xF3913577 PUSH1 0xE0 SHL DUP2 MSTORE DUP5 MLOAD PUSH1 0x4 DUP3 ADD MSTORE PUSH1 0x20 DUP6 ADD MLOAD PUSH1 0x24 DUP3 ADD MSTORE SWAP1 DUP5 ADD MLOAD PUSH1 0x1 PUSH1 0x1 PUSH1 0xA0 SHL SUB SWAP1 DUP2 AND PUSH1 0x44 DUP4 ADD MSTORE PUSH1 0x60 DUP6 ADD MLOAD ISZERO ISZERO PUSH1 0x64 DUP4 ADD MSTORE PUSH1 0x80 DUP6 ADD MLOAD DUP2 AND PUSH1 0x84 DUP4 ADD MSTORE PUSH1 0xA0 DUP6 ADD MLOAD DUP2 AND PUSH1 0xA4 DUP4 ADD MSTORE PUSH1 0xC0 DUP6 ADD MLOAD ISZERO ISZERO PUSH1 0xC4 DUP4 ADD MSTORE PUSH1 0xE0 DUP6 ADD MLOAD PUSH1 0xE4 DUP4 ADD MSTORE SWAP1 SWAP2 AND SWAP1 PUSH4 0xF3913577 SWAP1 PUSH2 0x104 ADD PUSH1 0x0 PUSH1 0x40 MLOAD DUP1 DUP4 SUB DUP2 PUSH1 0x0 DUP8 DUP1 EXTCODESIZE ISZERO DUP1 ISZERO PUSH2 0x309 JUMPI PUSH1 0x0 DUP1 REVERT JUMPDEST POP GAS CALL ISZERO DUP1 ISZERO PUSH2 0x31D JUMPI RETURNDATASIZE PUSH1 0x0 DUP1 RETURNDATACOPY RETURNDATASIZE PUSH1 0x0 REVERT JUMPDEST POP POP CALLER PUSH1 0x0 SWAP1 DUP2 MSTORE PUSH1 0x4 PUSH1 0x20 MSTORE PUSH1 0x40 SWAP1 DUP2 SWAP1 KECCAK256 SLOAD SWAP1 MLOAD PUSH32 0xD49A4559BDDCF9B3F02926936008FEBF67B424D2F0E30B5CBB9D954B8D7A68FB SWAP4 POP PUSH2 0x364 SWAP3 POP SWAP1 DUP2 MSTORE PUSH1 0x20 ADD SWAP1 JUMP JUMPDEST PUSH1 0x40 MLOAD DUP1 SWAP2 SUB SWAP1 LOG1 POP POP JUMP JUMPDEST PUSH1 0x0 DUP2 DUP2 MSTORE PUSH1 0x3 PUSH1 0x20 MSTORE PUSH1 0x40 SWAP1 KECCAK256 SLOAD DUP2 SWAP1 PUSH1 0x1 PUSH1 0x1 PUSH1 0xA0 SHL SUB AND ISZERO PUSH2 0x3C5 JUMPI PUSH1 0x40 MLOAD PUSH3 0x461BCD PUSH1 0xE5 SHL DUP2 MSTORE PUSH1 0x20 PUSH1 0x4 DUP3 ADD MSTORE PUSH1 0xB PUSH1 0x24 DUP3 ADD MSTORE PUSH11 0x536F756C20657869737473 PUSH1 0xA8 SHL PUSH1 0x44 DUP3 ADD MSTORE PUSH1 0x64 ADD PUSH2 0x268 JUMP JUMPDEST PUSH1 0x0 DUP2 DUP2 MSTORE PUSH1 0x6 PUSH1 0x20 MSTORE PUSH1 0x40 SWAP1 KECCAK256 SLOAD PUSH1 0xFF AND ISZERO PUSH2 0x424 JUMPI PUSH1 0x40 MLOAD PUSH3 0x461BCD PUSH1 0xE5 SHL DUP2 MSTORE PUSH1 0x20 PUSH1 0x4 DUP3 ADD MSTORE PUSH1 0x1F PUSH1 0x24 DUP3 ADD MSTORE PUSH32 0x536F756C206973206D696E7465642C20627574206E6F7420636C61696D656400 PUSH1 0x44 DUP3 ADD MSTORE PUSH1 0x64 ADD PUSH2 0x268 JUMP JUMPDEST PUSH1 0x0 SLOAD PUSH1 0x1 PUSH1 0x1 PUSH1 0xA0 SHL SUB AND CALLER EQ PUSH2 0x47E JUMPI PUSH1 0x40 MLOAD PUSH3 0x461BCD PUSH1 0xE5 SHL DUP2 MSTORE PUSH1 0x20 PUSH1 0x4 DUP3 ADD DUP2 SWAP1 MSTORE PUSH1 0x24 DUP3 ADD MSTORE PUSH32 0x4F6E6C79206F70657261746F722063616E206D696E74206E657720736F756C73 PUSH1 0x44 DUP3 ADD MSTORE PUSH1 0x64 ADD PUSH2 0x268 JUMP JUMPDEST PUSH1 0x1 PUSH1 0x1 PUSH1 0xA0 SHL SUB DUP4 AND PUSH1 0x0 SWAP1 DUP2 MSTORE PUSH1 0x4 PUSH1 0x20 SWAP1 DUP2 MSTORE PUSH1 0x40 DUP1 DUP4 KECCAK256 DUP6 SWAP1 SSTORE DUP5 DUP4 MSTORE PUSH1 0x6 DUP3 MSTORE SWAP2 DUP3 SWAP1 KECCAK256 DUP1 SLOAD PUSH1 0xFF NOT AND PUSH1 0x1 OR SWAP1 SSTORE SWAP1 MLOAD DUP4 DUP2 MSTORE PUSH32 0x7883703ED0E86588A40D76551C92F8A4B329E3BF19765E0E6749473C1A84665 SWAP2 ADD JUMPDEST PUSH1 0x40 MLOAD DUP1 SWAP2 SUB SWAP1 LOG1 POP POP POP JUMP JUMPDEST CALLER PUSH1 0x0 SWAP1 DUP2 MSTORE PUSH1 0x4 PUSH1 0x20 SWAP1 DUP2 MSTORE PUSH1 0x40 DUP1 DUP4 KECCAK256 SLOAD DUP1 DUP5 MSTORE PUSH1 0x3 SWAP1 SWAP3 MSTORE SWAP1 SWAP2 KECCAK256 SLOAD PUSH1 0x1 PUSH1 0x1 PUSH1 0xA0 SHL SUB AND PUSH2 0x52C JUMPI PUSH1 0x40 MLOAD PUSH3 0x461BCD PUSH1 0xE5 SHL DUP2 MSTORE PUSH1 0x4 ADD PUSH2 0x268 SWAP1 PUSH2 0xAB2 JUMP JUMPDEST CALLER PUSH1 0x0 SWAP1 DUP2 MSTORE PUSH1 0x4 PUSH1 0x20 SWAP1 DUP2 MSTORE PUSH1 0x40 DUP1 DUP4 KECCAK256 DUP1 SLOAD DUP1 DUP6 MSTORE PUSH1 0x5 DUP5 MSTORE DUP3 DUP6 KECCAK256 DUP6 DUP2 SSTORE PUSH1 0x1 DUP2 ADD DUP7 SWAP1 SSTORE PUSH1 0x2 ADD DUP6 SWAP1 SSTORE SWAP1 DUP5 SWAP1 SSTORE PUSH1 0x3 DUP4 MSTORE SWAP3 DUP2 SWAP1 KECCAK256 DUP1 SLOAD PUSH1 0x1 PUSH1 0x1 PUSH1 0xA0 SHL SUB NOT AND SWAP1 SSTORE MLOAD DUP3 DUP2 MSTORE PUSH32 0xB90306AD06B2A6FF86DDC9327DB583062895EF6540E62DC50ADD009DB5B356EB SWAP2 ADD PUSH2 0x364 JUMP JUMPDEST PUSH2 0x5A8 PUSH2 0x8C9 JUMP JUMPDEST PUSH1 0x1 PUSH1 0x1 PUSH1 0xA0 SHL SUB DUP3 AND PUSH1 0x0 SWAP1 DUP2 MSTORE PUSH1 0x4 PUSH1 0x20 MSTORE PUSH1 0x40 DUP2 KECCAK256 SLOAD SWAP1 SUB PUSH2 0x5DF JUMPI PUSH1 0x40 MLOAD PUSH3 0x461BCD PUSH1 0xE5 SHL DUP2 MSTORE PUSH1 0x4 ADD PUSH2 0x268 SWAP1 PUSH2 0xAB2 JUMP JUMPDEST POP PUSH1 0x1 PUSH1 0x1 PUSH1 0xA0 SHL SUB AND PUSH1 0x0 SWAP1 DUP2 MSTORE PUSH1 0x4 PUSH1 0x20 SWAP1 DUP2 MSTORE PUSH1 0x40 DUP1 DUP4 KECCAK256 SLOAD DUP4 MSTORE PUSH1 0x5 DUP3 MSTORE SWAP2 DUP3 SWAP1 KECCAK256 DUP3 MLOAD DUP1 DUP5 ADD DUP5 MSTORE DUP2 SLOAD DUP2 MSTORE DUP4 MLOAD DUP1 DUP6 ADD SWAP1 SWAP5 MSTORE PUSH1 0x1 DUP3 ADD SLOAD DUP5 MSTORE PUSH1 0x2 SWAP1 SWAP2 ADD SLOAD DUP4 DUP4 ADD MSTORE SWAP1 DUP2 ADD SWAP2 SWAP1 SWAP2 MSTORE SWAP1 JUMP JUMPDEST CALLER PUSH1 0x0 SWAP1 DUP2 MSTORE PUSH1 0x4 PUSH1 0x20 SWAP1 DUP2 MSTORE PUSH1 0x40 DUP1 DUP4 KECCAK256 SLOAD DUP1 DUP5 MSTORE PUSH1 0x3 SWAP1 SWAP3 MSTORE SWAP1 SWAP2 KECCAK256 SLOAD PUSH1 0x1 PUSH1 0x1 PUSH1 0xA0 SHL SUB AND ISZERO PUSH2 0x6A8 JUMPI PUSH1 0x40 MLOAD PUSH3 0x461BCD PUSH1 0xE5 SHL DUP2 MSTORE PUSH1 0x20 PUSH1 0x4 DUP3 ADD MSTORE PUSH1 0x17 PUSH1 0x24 DUP3 ADD MSTORE PUSH32 0x536F756C20697320616C726561647920636C61696D6564000000000000000000 PUSH1 0x44 DUP3 ADD MSTORE PUSH1 0x64 ADD PUSH2 0x268 JUMP JUMPDEST PUSH1 0x0 DUP2 DUP2 MSTORE PUSH1 0x6 PUSH1 0x20 MSTORE PUSH1 0x40 SWAP1 KECCAK256 SLOAD PUSH1 0xFF AND PUSH2 0x6F8 JUMPI PUSH1 0x40 MLOAD PUSH3 0x461BCD PUSH1 0xE5 SHL DUP2 MSTORE PUSH1 0x20 PUSH1 0x4 DUP3 ADD MSTORE PUSH1 0xF PUSH1 0x24 DUP3 ADD MSTORE PUSH15 0x139BDB881B5A5B9D1959081CDBDD5B PUSH1 0x8A SHL PUSH1 0x44 DUP3 ADD MSTORE PUSH1 0x64 ADD PUSH2 0x268 JUMP JUMPDEST CALLER PUSH1 0x0 DUP2 DUP2 MSTORE PUSH1 0x4 PUSH1 0x20 SWAP1 DUP2 MSTORE PUSH1 0x40 DUP1 DUP4 KECCAK256 SLOAD DUP1 DUP5 MSTORE PUSH1 0x6 DUP4 MSTORE DUP2 DUP5 KECCAK256 DUP1 SLOAD PUSH1 0xFF NOT AND SWAP1 SSTORE PUSH1 0x3 DUP4 MSTORE DUP2 DUP5 KECCAK256 DUP1 SLOAD PUSH1 0x1 PUSH1 0x1 PUSH1 0xA0 SHL SUB NOT AND SWAP1 SWAP6 OR SWAP1 SWAP5 SSTORE PUSH1 0x5 DUP3 MSTORE SWAP2 DUP3 SWAP1 KECCAK256 DUP4 DUP2 SSTORE DUP6 MLOAD PUSH1 0x1 DUP3 ADD SSTORE DUP6 DUP3 ADD MLOAD PUSH1 0x2 SWAP1 SWAP2 ADD SSTORE SWAP1 MLOAD DUP3 DUP2 MSTORE PUSH32 0x7BB2B3C10797BACCB6F8C4791F1EDD6CA2F0D028EE0EDA64B01A9A57E3A653F7 SWAP2 ADD PUSH2 0x4DB JUMP JUMPDEST PUSH1 0x0 DUP1 SLOAD PUSH1 0x1 PUSH1 0x1 PUSH1 0xA0 SHL SUB AND CALLER EQ PUSH2 0x7EF JUMPI PUSH1 0x40 MLOAD PUSH3 0x461BCD PUSH1 0xE5 SHL DUP2 MSTORE PUSH1 0x20 PUSH1 0x4 DUP3 ADD MSTORE PUSH1 0x2C PUSH1 0x24 DUP3 ADD MSTORE PUSH32 0x4F6E6C79207468697320636F6E74726163742063616E20766965772074686973 PUSH1 0x44 DUP3 ADD MSTORE PUSH12 0x206861736865642064617461 PUSH1 0xA0 SHL PUSH1 0x64 DUP3 ADD MSTORE PUSH1 0x84 ADD PUSH2 0x268 JUMP JUMPDEST POP PUSH1 0x0 SWAP1 DUP2 MSTORE PUSH1 0x3 PUSH1 0x20 MSTORE PUSH1 0x40 SWAP1 KECCAK256 SLOAD PUSH1 0x1 PUSH1 0x1 PUSH1 0xA0 SHL SUB AND SWAP1 JUMP JUMPDEST PUSH1 0x0 SLOAD PUSH1 0x1 PUSH1 0x1 PUSH1 0xA0 SHL SUB AND CALLER EQ PUSH2 0x875 JUMPI PUSH1 0x40 MLOAD PUSH3 0x461BCD PUSH1 0xE5 SHL DUP2 MSTORE PUSH1 0x20 PUSH1 0x4 DUP3 ADD MSTORE PUSH1 0x27 PUSH1 0x24 DUP3 ADD MSTORE PUSH32 0x4F6E6C79207468697320636F6E74726163742063616E20736574207468697320 PUSH1 0x44 DUP3 ADD MSTORE PUSH7 0x61646472657373 PUSH1 0xC8 SHL PUSH1 0x64 DUP3 ADD MSTORE PUSH1 0x84 ADD PUSH2 0x268 JUMP JUMPDEST PUSH1 0x1 DUP1 SLOAD PUSH1 0x1 PUSH1 0x1 PUSH1 0xA0 SHL SUB NOT AND PUSH1 0x1 PUSH1 0x1 PUSH1 0xA0 SHL SUB DUP4 AND SWAP1 DUP2 OR SWAP1 SWAP2 SSTORE PUSH1 0x40 MLOAD SWAP1 DUP2 MSTORE PUSH32 0x763C88EAA6A598ACCE6051F1D0326944C2B7166CC9512B51414A5AADAB51A9C SWAP1 PUSH1 0x20 ADD PUSH1 0x40 MLOAD DUP1 SWAP2 SUB SWAP1 LOG1 POP JUMP JUMPDEST PUSH1 0x40 MLOAD DUP1 PUSH1 0x40 ADD PUSH1 0x40 MSTORE DUP1 PUSH1 0x0 DUP2 MSTORE PUSH1 0x20 ADD PUSH2 0x8FE PUSH1 0x40 MLOAD DUP1 PUSH1 0x40 ADD PUSH1 0x40 MSTORE DUP1 PUSH1 0x0 DUP1 NOT AND DUP2 MSTORE PUSH1 0x20 ADD PUSH1 0x0 DUP1 NOT AND DUP2 MSTORE POP SWAP1 JUMP JUMPDEST SWAP1 MSTORE SWAP1 JUMP JUMPDEST DUP1 CALLDATALOAD PUSH1 0x1 PUSH1 0x1 PUSH1 0xA0 SHL SUB DUP2 AND DUP2 EQ PUSH2 0x91A JUMPI PUSH1 0x0 DUP1 REVERT JUMPDEST SWAP2 SWAP1 POP JUMP JUMPDEST DUP1 CALLDATALOAD DUP1 ISZERO ISZERO DUP2 EQ PUSH2 0x91A JUMPI PUSH1 0x0 DUP1 REVERT JUMPDEST PUSH1 0x0 PUSH2 0x100 DUP1 DUP4 DUP6 SUB SLT ISZERO PUSH2 0x943 JUMPI PUSH1 0x0 DUP1 REVERT JUMPDEST PUSH1 0x40 MLOAD SWAP1 DUP2 ADD SWAP1 PUSH8 0xFFFFFFFFFFFFFFFF DUP3 GT DUP2 DUP4 LT OR ISZERO PUSH2 0x974 JUMPI PUSH4 0x4E487B71 PUSH1 0xE0 SHL PUSH1 0x0 MSTORE PUSH1 0x41 PUSH1 0x4 MSTORE PUSH1 0x24 PUSH1 0x0 REVERT JUMPDEST DUP2 PUSH1 0x40 MSTORE DUP4 CALLDATALOAD DUP2 MSTORE PUSH1 0x20 DUP5 ADD CALLDATALOAD PUSH1 0x20 DUP3 ADD MSTORE PUSH2 0x992 PUSH1 0x40 DUP6 ADD PUSH2 0x903 JUMP JUMPDEST PUSH1 0x40 DUP3 ADD MSTORE PUSH2 0x9A3 PUSH1 0x60 DUP6 ADD PUSH2 0x91F JUMP JUMPDEST PUSH1 0x60 DUP3 ADD MSTORE PUSH2 0x9B4 PUSH1 0x80 DUP6 ADD PUSH2 0x903 JUMP JUMPDEST PUSH1 0x80 DUP3 ADD MSTORE PUSH2 0x9C5 PUSH1 0xA0 DUP6 ADD PUSH2 0x903 JUMP JUMPDEST PUSH1 0xA0 DUP3 ADD MSTORE PUSH2 0x9D6 PUSH1 0xC0 DUP6 ADD PUSH2 0x91F JUMP JUMPDEST PUSH1 0xC0 DUP3 ADD MSTORE PUSH1 0xE0 DUP5 ADD CALLDATALOAD PUSH1 0xE0 DUP3 ADD MSTORE DUP1 SWAP3 POP POP POP SWAP3 SWAP2 POP POP JUMP JUMPDEST PUSH1 0x0 DUP1 PUSH1 0x40 DUP4 DUP6 SUB SLT ISZERO PUSH2 0xA03 JUMPI PUSH1 0x0 DUP1 REVERT JUMPDEST PUSH2 0xA0C DUP4 PUSH2 0x903 JUMP JUMPDEST SWAP5 PUSH1 0x20 SWAP4 SWAP1 SWAP4 ADD CALLDATALOAD SWAP4 POP POP POP JUMP JUMPDEST PUSH1 0x0 PUSH1 0x20 DUP3 DUP5 SUB SLT ISZERO PUSH2 0xA2C JUMPI PUSH1 0x0 DUP1 REVERT JUMPDEST PUSH2 0xA35 DUP3 PUSH2 0x903 JUMP JUMPDEST SWAP4 SWAP3 POP POP POP JUMP JUMPDEST PUSH1 0x0 PUSH1 0x40 DUP3 DUP5 SUB SLT ISZERO PUSH2 0xA4E JUMPI PUSH1 0x0 DUP1 REVERT JUMPDEST PUSH1 0x40 MLOAD PUSH1 0x40 DUP2 ADD DUP2 DUP2 LT PUSH8 0xFFFFFFFFFFFFFFFF DUP3 GT OR ISZERO PUSH2 0xA7F JUMPI PUSH4 0x4E487B71 PUSH1 0xE0 SHL PUSH1 0x0 MSTORE PUSH1 0x41 PUSH1 0x4 MSTORE PUSH1 0x24 PUSH1 0x0 REVERT JUMPDEST PUSH1 0x40 MSTORE DUP3 CALLDATALOAD DUP2 MSTORE PUSH1 0x20 SWAP3 DUP4 ADD CALLDATALOAD SWAP3 DUP2 ADD SWAP3 SWAP1 SWAP3 MSTORE POP SWAP2 SWAP1 POP JUMP JUMPDEST PUSH1 0x0 PUSH1 0x20 DUP3 DUP5 SUB SLT ISZERO PUSH2 0xAAB JUMPI PUSH1 0x0 DUP1 REVERT JUMPDEST POP CALLDATALOAD SWAP2 SWAP1 POP JUMP JUMPDEST PUSH1 0x20 DUP1 DUP3 MSTORE PUSH1 0x12 SWAP1 DUP3 ADD MSTORE PUSH18 0x14DBDD5B08191BD95CDB89DD08195E1A5CDD PUSH1 0x72 SHL PUSH1 0x40 DUP3 ADD MSTORE PUSH1 0x60 ADD SWAP1 JUMP INVALID LOG2 PUSH5 0x6970667358 0x22 SLT KECCAK256 CALL CALLER SWAP1 0xC3 CALLDATALOAD PUSH6 0x1C8B194E903B GAS 0xC9 0x4B 0xB0 0x4A SSTORE 0xD5 0xDC 0xAA DUP9 CALLER 0xE5 0xAF 0xC3 0xBC 0xB3 DUP9 0xB2 GT PUSH8 0x64736F6C63430008 GT STOP CALLER ",
  "sha1": "21eec919b7a3737b4406f56e3fd64f887b031f5c",
  "source": "// SPDX-License-Identifier: MIT\npragma solidity ^0.8.17;\n\ninterface SBT_achievement_interface {\n    struct Achievement {\n        uint achievement_id;\n        uint achievement_type;\n        address issuer;\n        bool can_owner_be_changed;\n        address owner;\n        address verifier;\n        bool is_verified;\n        bytes32 data_hash;\n    }\n\n    function mint(Achievement memory _achievementData) external;\n\n    function burn(uint _achievementId) external;\n\n    function updateOwner(uint _achievementId, address _newOwner) external;\n\n    function changeAchievementVerification(uint _achievementId, bool _newStatus)\n        external;\n}\n\ncontract SBT {\n    modifier soulExists(uint _soul_id) {\n        require(addressOfSoul[_soul_id] != address(0), \"Soul doesn't exist\");\n        _;\n    }\n\n    modifier mintedNotClaimedModifier(uint _soul_id) {\n        require(\n            addressOfSoul[_soul_id] == address(0),\n            \"Soul is already claimed\"\n        );\n        require(mintedNotClaimed[_soul_id], \"Non minted soul\");\n        _;\n    }\n\n    modifier notMinted(uint _soul_id) {\n        require(addressOfSoul[_soul_id] == address(0), \"Soul exists\");\n        require(!mintedNotClaimed[_soul_id], \"Soul is minted, but not claimed\");\n        _;\n    }\n\n    struct PersonalDataHashed {\n        bytes32 github_hash;\n        bytes32 email_address_hash;\n    }\n\n    struct PersonalData {\n        string github_url;\n        string email_address;\n    }\n\n    struct Soul {\n        uint soul_id;\n        PersonalDataHashed hashedData;\n    }\n\n    address public operator;\n    address public kAchevementsContract =\n        0x8016619281F888d011c84d2E2a5348d9417c775B;\n\n    SBT_achievement_interface SBT_achievement;\n    event Mint(uint _soul_id);\n    event Claim(uint _soul_id);\n    event MintAchievement(uint _soul_id);\n    event Burn(uint _soul_id_to_burn);\n    event Update(uint _soul_id_to_update);\n    event SetAchevementsContractAddress(address _new_address);\n\n    constructor() {\n        SBT_achievement = SBT_achievement_interface(kAchevementsContract);\n        operator = msg.sender;\n    }\n\n    mapping(uint => address) private addressOfSoul; //soul_id => address of owner\n    mapping(address => uint) soulIdOfAddress; //address => soul_id\n    mapping(uint => Soul) private souls;\n    mapping(uint => bool) private mintedNotClaimed;\n\n    // Function that hashes content of user's hashedData. Must be rewritten if PersonalData fields change.\n    function hashPersonalData(PersonalData memory _data)\n        internal\n        pure\n        returns (PersonalDataHashed memory)\n    {\n        PersonalDataHashed memory hashedData;\n        hashedData.email_address_hash = keccak256(\n            abi.encodePacked(_data.email_address)\n        );\n        hashedData.github_hash = keccak256(abi.encodePacked(_data.github_url));\n        return hashedData;\n    }\n\n    function setAchevementsContractAddress(address _new_address) external {\n        require(\n            msg.sender == operator,\n            \"Only this contract can set this address\"\n        );\n        kAchevementsContract = _new_address;\n        emit SetAchevementsContractAddress(_new_address);\n    }\n\n    // Mints the SBT for given address and with given soul_id. Can be called only by this contract.\n    function mint(address _soul_address, uint _soul_id)\n        external\n        notMinted(_soul_id)\n    {\n        require(msg.sender == operator, \"Only operator can mint new souls\");\n        soulIdOfAddress[_soul_address] = _soul_id;\n        mintedNotClaimed[_soul_id] = true;\n        emit Mint(_soul_id);\n    }\n\n    // After minting and SBT, user must claim ownership of SBT by\n    function claim(PersonalDataHashed memory _soulData)\n        external\n        mintedNotClaimedModifier(soulIdOfAddress[msg.sender])\n    {\n        uint _soul_id = soulIdOfAddress[msg.sender];\n        delete mintedNotClaimed[_soul_id];\n        addressOfSoul[_soul_id] = msg.sender;\n        souls[_soul_id].soul_id = _soul_id;\n        souls[_soul_id].hashedData = _soulData;\n        emit Claim(_soul_id);\n    }\n\n    // After minting and SBT, user must claim ownership of SBT by\n    function mint_achievement(\n        SBT_achievement_interface.Achievement memory _achievementData\n    ) external soulExists(soulIdOfAddress[msg.sender]) {\n        SBT_achievement.mint(_achievementData);\n        emit MintAchievement(soulIdOfAddress[msg.sender]);\n    }\n\n    // Deletes SBT of msg.sender from storage.\n    function burn() external soulExists(soulIdOfAddress[msg.sender]) {\n        uint _soul_id_to_burn = soulIdOfAddress[msg.sender];\n        delete souls[_soul_id_to_burn];\n        delete soulIdOfAddress[msg.sender];\n        delete addressOfSoul[_soul_id_to_burn];\n        emit Burn(_soul_id_to_burn);\n    }\n\n    // Returns true, if there is an SBT for given address.\n    function hasSoul(address _soul) external view returns (bool) {\n        return soulIdOfAddress[_soul] != 0;\n    }\n\n    // Returns SBT of given address, if there is one; otherwise throws an error.\n    function getSoul(address _soul) external view returns (Soul memory) {\n        require(soulIdOfAddress[_soul] != 0, \"Soul doesn't exist\");\n        return souls[soulIdOfAddress[_soul]];\n    }\n\n    // Returns owner of given '_soul_id', if there is one; otherwise returns NULL-address.\n    function getOwner(uint _soul_id) external view returns (address) {\n        require(\n            msg.sender == operator,\n            \"Only this contract can view this hashed data\"\n        );\n        return addressOfSoul[_soul_id];\n    }\n\n    // Allows user to verify, that their data stored in our app is it's own and doesn't change.\n    function verifyDataCorrectness()\n        external\n        view\n        returns (PersonalDataHashed memory)\n    {\n        return souls[soulIdOfAddress[msg.sender]].hashedData;\n    }\n}\n",
  "sourcePath": "contracts/sbt.sol",
  "type": "contract"
}