{
  "abi": [
    {
      "inputs": [],
      "stateMutability": "nonpayable",
      "type": "constructor"
    },
    {
      "anonymous": false,
      "inputs": [
        {
          "indexed": false,
          "internalType": "uint256",
          "name": "_soul_id_to_burn",
          "type": "uint256"
        }
      ],
      "name": "Burn",
      "type": "event"
    },
    {
      "anonymous": false,
      "inputs": [
        {
          "indexed": false,
          "internalType": "address",
          "name": "_soul",
          "type": "address"
        }
      ],
      "name": "Mint",
      "type": "event"
    },
    {
      "anonymous": false,
      "inputs": [
        {
          "indexed": false,
          "internalType": "uint256",
          "name": "_soul_id_to_update",
          "type": "uint256"
        }
      ],
      "name": "Update",
      "type": "event"
    },
    {
      "inputs": [
        {
          "internalType": "uint256",
          "name": "_soul_id_to_burn",
          "type": "uint256"
        }
      ],
      "name": "burn",
      "outputs": [],
      "stateMutability": "nonpayable",
      "type": "function"
    },
    {
      "inputs": [
        {
          "internalType": "uint256",
          "name": "_soul_id",
          "type": "uint256"
        }
      ],
      "name": "getOwner",
      "outputs": [
        {
          "internalType": "address",
          "name": "",
          "type": "address"
        }
      ],
      "stateMutability": "view",
      "type": "function"
    },
    {
      "inputs": [
        {
          "internalType": "address",
          "name": "_soul",
          "type": "address"
        }
      ],
      "name": "getSoul",
      "outputs": [
        {
          "components": [
            {
              "components": [
                {
                  "internalType": "bytes32",
                  "name": "url_hash",
                  "type": "bytes32"
                },
                {
                  "internalType": "bytes32",
                  "name": "github_url_hash",
                  "type": "bytes32"
                },
                {
                  "internalType": "bytes32",
                  "name": "email_address_hash",
                  "type": "bytes32"
                }
              ],
              "internalType": "struct SBT.PersonalDataHashed",
              "name": "hashedData",
              "type": "tuple"
            }
          ],
          "internalType": "struct SBT.Soul",
          "name": "",
          "type": "tuple"
        }
      ],
      "stateMutability": "view",
      "type": "function"
    },
    {
      "inputs": [
        {
          "internalType": "address",
          "name": "_soul",
          "type": "address"
        }
      ],
      "name": "hasSoul",
      "outputs": [
        {
          "internalType": "bool",
          "name": "",
          "type": "bool"
        }
      ],
      "stateMutability": "view",
      "type": "function"
    },
    {
      "inputs": [
        {
          "internalType": "address",
          "name": "_soul_address",
          "type": "address"
        },
        {
          "internalType": "uint256",
          "name": "_soul_id",
          "type": "uint256"
        },
        {
          "components": [
            {
              "internalType": "string",
              "name": "url",
              "type": "string"
            },
            {
              "internalType": "string",
              "name": "github_url",
              "type": "string"
            },
            {
              "internalType": "string",
              "name": "email_address",
              "type": "string"
            }
          ],
          "internalType": "struct SBT.PersonalData",
          "name": "_soulData",
          "type": "tuple"
        }
      ],
      "name": "mint",
      "outputs": [],
      "stateMutability": "nonpayable",
      "type": "function"
    },
    {
      "inputs": [],
      "name": "operator",
      "outputs": [
        {
          "internalType": "address",
          "name": "",
          "type": "address"
        }
      ],
      "stateMutability": "view",
      "type": "function"
    },
    {
      "inputs": [
        {
          "components": [
            {
              "internalType": "bytes32",
              "name": "url_hash",
              "type": "bytes32"
            },
            {
              "internalType": "bytes32",
              "name": "github_url_hash",
              "type": "bytes32"
            },
            {
              "internalType": "bytes32",
              "name": "email_address_hash",
              "type": "bytes32"
            }
          ],
          "internalType": "struct SBT.PersonalDataHashed",
          "name": "_newSoulData",
          "type": "tuple"
        }
      ],
      "name": "update",
      "outputs": [],
      "stateMutability": "nonpayable",
      "type": "function"
    },
    {
      "inputs": [
        {
          "components": [
            {
              "internalType": "string",
              "name": "url",
              "type": "string"
            },
            {
              "internalType": "string",
              "name": "github_url",
              "type": "string"
            },
            {
              "internalType": "string",
              "name": "email_address",
              "type": "string"
            }
          ],
          "internalType": "struct SBT.PersonalData",
          "name": "_dataToVerify",
          "type": "tuple"
        }
      ],
      "name": "verifyDataCorrectness",
      "outputs": [
        {
          "internalType": "bool",
          "name": "",
          "type": "bool"
        }
      ],
      "stateMutability": "view",
      "type": "function"
    }
  ],
  "bytecode": "608060405234801561001057600080fd5b50600080546001600160a01b03191633179055610a0d806100326000396000f3fe608060405234801561001057600080fd5b50600436106100885760003560e01c8063bdd752021161005b578063bdd752021461011b578063c41a360a14610156578063dd18bfb414610169578063e068ba8b1461017c57600080fd5b806303323d1e1461008d57806342966c68146100a2578063570ca735146100b557806366cfe97f146100e5575b600080fd5b6100a061009b36600461087d565b61018f565b005b6100a06100b03660046108d4565b6102f6565b6000546100c8906001600160a01b031681565b6040516001600160a01b0390911681526020015b60405180910390f35b6100f86100f33660046108ed565b61037f565b6040805191518051835260208082015190840152810151908201526060016100dc565b6101466101293660046108ed565b6001600160a01b0316600090815260026020526040902054151590565b60405190151581526020016100dc565b6100c86101643660046108d4565b61044c565b61014661017736600461090f565b6104d8565b6100a061018a36600461094c565b610572565b60008281526001602052604090205482906001600160a01b0316156101f05760405162461bcd60e51b8152602060048201526012602482015271105b1c9958591e481a185cc818481cdbdd5b60721b60448201526064015b60405180910390fd5b6000546001600160a01b0316331461024a5760405162461bcd60e51b815260206004820181905260248201527f4f6e6c79206f70657261746f722063616e206d696e74206e657720736f756c7360448201526064016101e7565b600083815260016020908152604080832080546001600160a01b0319166001600160a01b03891690811790915583526002909152902083905561028c8261064a565b6000848152600360209081526040918290208351815583820151600182015592820151600290930192909255516001600160a01b03861681527f3c3284d117c92d0b1699230960384e794dcba184cc48ff114fe4fed20c9b0565910160405180910390a150505050565b60008181526003602090815260408083208381556001808201859055600291820185905580845282852080546001600160a01b031686529184528285208590559385905292825282546001600160a01b03191690925590518281527fb90306ad06b2a6ff86ddc9327db583062895ef6540e62dc50add009db5b356eb910160405180910390a150565b6040805160808101825260006020820181815292820181905260608201529081526001600160a01b03821660009081526002602052604081205490036103fc5760405162461bcd60e51b815260206004820152601260248201527114dbdd5b08191bd95cdb89dd08195e1a5cdd60721b60448201526064016101e7565b506001600160a01b03166000908152600260208181526040808420548452600382529283902083516080810185528154928101928352600182015494810194909452909101546060830152815290565b600080546001600160a01b031633146104bc5760405162461bcd60e51b815260206004820152602c60248201527f4f6e6c79207468697320636f6e74726163742063616e2076696577207468697360448201526b20686173686564206461746160a01b60648201526084016101e7565b506000908152600160205260409020546001600160a01b031690565b336000908152600260208181526040808420548452600382528084208151606081018352815481526001820154938101939093529092015491810191909152816105218461064a565b9050816040015181604001511461053c575060009392505050565b8160200151816020015114610555575060009392505050565b8151815114610568575060009392505050565b5060019392505050565b336000908152600260209081526040808320548084526001909252909120546001600160a01b03166105db5760405162461bcd60e51b8152602060048201526012602482015271105b1c9958591e481a185cc818481cdbdd5b60721b60448201526064016101e7565b336000818152600260208181526040808420805485526003835281852088518155888401516001820155888301519085015594909352908152915490519081527f164f7b2ab803097dab5e39f06d2e4f3c3ddc5d4171abbdcc3e76443b8359c7f5910160405180910390a15050565b60408051606081018252600080825260208201819052918101919091526040805160608101825260008082526020820181905291810191909152826040015160405160200161069991906109a8565b60408051601f198184030181529181528151602092830120838201528482015190516106c592016109a8565b60408051601f19818403018152918152815160209283012083830152845190516106ef92016109a8565b60408051601f198184030181529190528051602090910120815292915050565b80356001600160a01b038116811461072657600080fd5b919050565b634e487b7160e01b600052604160045260246000fd5b600082601f83011261075257600080fd5b813567ffffffffffffffff8082111561076d5761076d61072b565b604051601f8301601f19908116603f011681019082821181831017156107955761079561072b565b816040528381528660208588010111156107ae57600080fd5b836020870160208301376000602085830101528094505050505092915050565b6000606082840312156107e057600080fd5b6040516060810167ffffffffffffffff82821081831117156108045761080461072b565b81604052829350843591508082111561081c57600080fd5b61082886838701610741565b8352602085013591508082111561083e57600080fd5b61084a86838701610741565b6020840152604085013591508082111561086357600080fd5b5061087085828601610741565b6040830152505092915050565b60008060006060848603121561089257600080fd5b61089b8461070f565b925060208401359150604084013567ffffffffffffffff8111156108be57600080fd5b6108ca868287016107ce565b9150509250925092565b6000602082840312156108e657600080fd5b5035919050565b6000602082840312156108ff57600080fd5b6109088261070f565b9392505050565b60006020828403121561092157600080fd5b813567ffffffffffffffff81111561093857600080fd5b610944848285016107ce565b949350505050565b60006060828403121561095e57600080fd5b6040516060810181811067ffffffffffffffff821117156109815761098161072b565b80604052508235815260208301356020820152604083013560408201528091505092915050565b6000825160005b818110156109c957602081860181015185830152016109af565b50600092019182525091905056fea26469706673582212209de74730ce0a63a5166a701e89e998329a570ea03ac10963e015281ad65695a464736f6c63430008110033",
  "bytecodeSha1": "aef6abcc41b59e6a8519619ede66c4a4437d2088",
  "compiler": {
    "evm_version": "istanbul",
    "optimizer": {
      "enabled": true,
      "runs": 200
    },
    "version": "0.8.17+commit.8df45f5f"
  },
  "contractName": "SBT",
  "language": "Solidity",
  "natspec": {
    "kind": "dev",
    "methods": {},
    "version": 1
  },
  "opcodes": "PUSH1 0x80 PUSH1 0x40 MSTORE CALLVALUE DUP1 ISZERO PUSH2 0x10 JUMPI PUSH1 0x0 DUP1 REVERT JUMPDEST POP PUSH1 0x4 CALLDATASIZE LT PUSH2 0x88 JUMPI PUSH1 0x0 CALLDATALOAD PUSH1 0xE0 SHR DUP1 PUSH4 0xBDD75202 GT PUSH2 0x5B JUMPI DUP1 PUSH4 0xBDD75202 EQ PUSH2 0x11B JUMPI DUP1 PUSH4 0xC41A360A EQ PUSH2 0x156 JUMPI DUP1 PUSH4 0xDD18BFB4 EQ PUSH2 0x169 JUMPI DUP1 PUSH4 0xE068BA8B EQ PUSH2 0x17C JUMPI PUSH1 0x0 DUP1 REVERT JUMPDEST DUP1 PUSH4 0x3323D1E EQ PUSH2 0x8D JUMPI DUP1 PUSH4 0x42966C68 EQ PUSH2 0xA2 JUMPI DUP1 PUSH4 0x570CA735 EQ PUSH2 0xB5 JUMPI DUP1 PUSH4 0x66CFE97F EQ PUSH2 0xE5 JUMPI JUMPDEST PUSH1 0x0 DUP1 REVERT JUMPDEST PUSH2 0xA0 PUSH2 0x9B CALLDATASIZE PUSH1 0x4 PUSH2 0x87D JUMP JUMPDEST PUSH2 0x18F JUMP JUMPDEST STOP JUMPDEST PUSH2 0xA0 PUSH2 0xB0 CALLDATASIZE PUSH1 0x4 PUSH2 0x8D4 JUMP JUMPDEST PUSH2 0x2F6 JUMP JUMPDEST PUSH1 0x0 SLOAD PUSH2 0xC8 SWAP1 PUSH1 0x1 PUSH1 0x1 PUSH1 0xA0 SHL SUB AND DUP2 JUMP JUMPDEST PUSH1 0x40 MLOAD PUSH1 0x1 PUSH1 0x1 PUSH1 0xA0 SHL SUB SWAP1 SWAP2 AND DUP2 MSTORE PUSH1 0x20 ADD JUMPDEST PUSH1 0x40 MLOAD DUP1 SWAP2 SUB SWAP1 RETURN JUMPDEST PUSH2 0xF8 PUSH2 0xF3 CALLDATASIZE PUSH1 0x4 PUSH2 0x8ED JUMP JUMPDEST PUSH2 0x37F JUMP JUMPDEST PUSH1 0x40 DUP1 MLOAD SWAP2 MLOAD DUP1 MLOAD DUP4 MSTORE PUSH1 0x20 DUP1 DUP3 ADD MLOAD SWAP1 DUP5 ADD MSTORE DUP2 ADD MLOAD SWAP1 DUP3 ADD MSTORE PUSH1 0x60 ADD PUSH2 0xDC JUMP JUMPDEST PUSH2 0x146 PUSH2 0x129 CALLDATASIZE PUSH1 0x4 PUSH2 0x8ED JUMP JUMPDEST PUSH1 0x1 PUSH1 0x1 PUSH1 0xA0 SHL SUB AND PUSH1 0x0 SWAP1 DUP2 MSTORE PUSH1 0x2 PUSH1 0x20 MSTORE PUSH1 0x40 SWAP1 KECCAK256 SLOAD ISZERO ISZERO SWAP1 JUMP JUMPDEST PUSH1 0x40 MLOAD SWAP1 ISZERO ISZERO DUP2 MSTORE PUSH1 0x20 ADD PUSH2 0xDC JUMP JUMPDEST PUSH2 0xC8 PUSH2 0x164 CALLDATASIZE PUSH1 0x4 PUSH2 0x8D4 JUMP JUMPDEST PUSH2 0x44C JUMP JUMPDEST PUSH2 0x146 PUSH2 0x177 CALLDATASIZE PUSH1 0x4 PUSH2 0x90F JUMP JUMPDEST PUSH2 0x4D8 JUMP JUMPDEST PUSH2 0xA0 PUSH2 0x18A CALLDATASIZE PUSH1 0x4 PUSH2 0x94C JUMP JUMPDEST PUSH2 0x572 JUMP JUMPDEST PUSH1 0x0 DUP3 DUP2 MSTORE PUSH1 0x1 PUSH1 0x20 MSTORE PUSH1 0x40 SWAP1 KECCAK256 SLOAD DUP3 SWAP1 PUSH1 0x1 PUSH1 0x1 PUSH1 0xA0 SHL SUB AND ISZERO PUSH2 0x1F0 JUMPI PUSH1 0x40 MLOAD PUSH3 0x461BCD PUSH1 0xE5 SHL DUP2 MSTORE PUSH1 0x20 PUSH1 0x4 DUP3 ADD MSTORE PUSH1 0x12 PUSH1 0x24 DUP3 ADD MSTORE PUSH18 0x105B1C9958591E481A185CC818481CDBDD5B PUSH1 0x72 SHL PUSH1 0x44 DUP3 ADD MSTORE PUSH1 0x64 ADD JUMPDEST PUSH1 0x40 MLOAD DUP1 SWAP2 SUB SWAP1 REVERT JUMPDEST PUSH1 0x0 SLOAD PUSH1 0x1 PUSH1 0x1 PUSH1 0xA0 SHL SUB AND CALLER EQ PUSH2 0x24A JUMPI PUSH1 0x40 MLOAD PUSH3 0x461BCD PUSH1 0xE5 SHL DUP2 MSTORE PUSH1 0x20 PUSH1 0x4 DUP3 ADD DUP2 SWAP1 MSTORE PUSH1 0x24 DUP3 ADD MSTORE PUSH32 0x4F6E6C79206F70657261746F722063616E206D696E74206E657720736F756C73 PUSH1 0x44 DUP3 ADD MSTORE PUSH1 0x64 ADD PUSH2 0x1E7 JUMP JUMPDEST PUSH1 0x0 DUP4 DUP2 MSTORE PUSH1 0x1 PUSH1 0x20 SWAP1 DUP2 MSTORE PUSH1 0x40 DUP1 DUP4 KECCAK256 DUP1 SLOAD PUSH1 0x1 PUSH1 0x1 PUSH1 0xA0 SHL SUB NOT AND PUSH1 0x1 PUSH1 0x1 PUSH1 0xA0 SHL SUB DUP10 AND SWAP1 DUP2 OR SWAP1 SWAP2 SSTORE DUP4 MSTORE PUSH1 0x2 SWAP1 SWAP2 MSTORE SWAP1 KECCAK256 DUP4 SWAP1 SSTORE PUSH2 0x28C DUP3 PUSH2 0x64A JUMP JUMPDEST PUSH1 0x0 DUP5 DUP2 MSTORE PUSH1 0x3 PUSH1 0x20 SWAP1 DUP2 MSTORE PUSH1 0x40 SWAP2 DUP3 SWAP1 KECCAK256 DUP4 MLOAD DUP2 SSTORE DUP4 DUP3 ADD MLOAD PUSH1 0x1 DUP3 ADD SSTORE SWAP3 DUP3 ADD MLOAD PUSH1 0x2 SWAP1 SWAP4 ADD SWAP3 SWAP1 SWAP3 SSTORE MLOAD PUSH1 0x1 PUSH1 0x1 PUSH1 0xA0 SHL SUB DUP7 AND DUP2 MSTORE PUSH32 0x3C3284D117C92D0B1699230960384E794DCBA184CC48FF114FE4FED20C9B0565 SWAP2 ADD PUSH1 0x40 MLOAD DUP1 SWAP2 SUB SWAP1 LOG1 POP POP POP POP JUMP JUMPDEST PUSH1 0x0 DUP2 DUP2 MSTORE PUSH1 0x3 PUSH1 0x20 SWAP1 DUP2 MSTORE PUSH1 0x40 DUP1 DUP4 KECCAK256 DUP4 DUP2 SSTORE PUSH1 0x1 DUP1 DUP3 ADD DUP6 SWAP1 SSTORE PUSH1 0x2 SWAP2 DUP3 ADD DUP6 SWAP1 SSTORE DUP1 DUP5 MSTORE DUP3 DUP6 KECCAK256 DUP1 SLOAD PUSH1 0x1 PUSH1 0x1 PUSH1 0xA0 SHL SUB AND DUP7 MSTORE SWAP2 DUP5 MSTORE DUP3 DUP6 KECCAK256 DUP6 SWAP1 SSTORE SWAP4 DUP6 SWAP1 MSTORE SWAP3 DUP3 MSTORE DUP3 SLOAD PUSH1 0x1 PUSH1 0x1 PUSH1 0xA0 SHL SUB NOT AND SWAP1 SWAP3 SSTORE SWAP1 MLOAD DUP3 DUP2 MSTORE PUSH32 0xB90306AD06B2A6FF86DDC9327DB583062895EF6540E62DC50ADD009DB5B356EB SWAP2 ADD PUSH1 0x40 MLOAD DUP1 SWAP2 SUB SWAP1 LOG1 POP JUMP JUMPDEST PUSH1 0x40 DUP1 MLOAD PUSH1 0x80 DUP2 ADD DUP3 MSTORE PUSH1 0x0 PUSH1 0x20 DUP3 ADD DUP2 DUP2 MSTORE SWAP3 DUP3 ADD DUP2 SWAP1 MSTORE PUSH1 0x60 DUP3 ADD MSTORE SWAP1 DUP2 MSTORE PUSH1 0x1 PUSH1 0x1 PUSH1 0xA0 SHL SUB DUP3 AND PUSH1 0x0 SWAP1 DUP2 MSTORE PUSH1 0x2 PUSH1 0x20 MSTORE PUSH1 0x40 DUP2 KECCAK256 SLOAD SWAP1 SUB PUSH2 0x3FC JUMPI PUSH1 0x40 MLOAD PUSH3 0x461BCD PUSH1 0xE5 SHL DUP2 MSTORE PUSH1 0x20 PUSH1 0x4 DUP3 ADD MSTORE PUSH1 0x12 PUSH1 0x24 DUP3 ADD MSTORE PUSH18 0x14DBDD5B08191BD95CDB89DD08195E1A5CDD PUSH1 0x72 SHL PUSH1 0x44 DUP3 ADD MSTORE PUSH1 0x64 ADD PUSH2 0x1E7 JUMP JUMPDEST POP PUSH1 0x1 PUSH1 0x1 PUSH1 0xA0 SHL SUB AND PUSH1 0x0 SWAP1 DUP2 MSTORE PUSH1 0x2 PUSH1 0x20 DUP2 DUP2 MSTORE PUSH1 0x40 DUP1 DUP5 KECCAK256 SLOAD DUP5 MSTORE PUSH1 0x3 DUP3 MSTORE SWAP3 DUP4 SWAP1 KECCAK256 DUP4 MLOAD PUSH1 0x80 DUP2 ADD DUP6 MSTORE DUP2 SLOAD SWAP3 DUP2 ADD SWAP3 DUP4 MSTORE PUSH1 0x1 DUP3 ADD SLOAD SWAP5 DUP2 ADD SWAP5 SWAP1 SWAP5 MSTORE SWAP1 SWAP2 ADD SLOAD PUSH1 0x60 DUP4 ADD MSTORE DUP2 MSTORE SWAP1 JUMP JUMPDEST PUSH1 0x0 DUP1 SLOAD PUSH1 0x1 PUSH1 0x1 PUSH1 0xA0 SHL SUB AND CALLER EQ PUSH2 0x4BC JUMPI PUSH1 0x40 MLOAD PUSH3 0x461BCD PUSH1 0xE5 SHL DUP2 MSTORE PUSH1 0x20 PUSH1 0x4 DUP3 ADD MSTORE PUSH1 0x2C PUSH1 0x24 DUP3 ADD MSTORE PUSH32 0x4F6E6C79207468697320636F6E74726163742063616E20766965772074686973 PUSH1 0x44 DUP3 ADD MSTORE PUSH12 0x206861736865642064617461 PUSH1 0xA0 SHL PUSH1 0x64 DUP3 ADD MSTORE PUSH1 0x84 ADD PUSH2 0x1E7 JUMP JUMPDEST POP PUSH1 0x0 SWAP1 DUP2 MSTORE PUSH1 0x1 PUSH1 0x20 MSTORE PUSH1 0x40 SWAP1 KECCAK256 SLOAD PUSH1 0x1 PUSH1 0x1 PUSH1 0xA0 SHL SUB AND SWAP1 JUMP JUMPDEST CALLER PUSH1 0x0 SWAP1 DUP2 MSTORE PUSH1 0x2 PUSH1 0x20 DUP2 DUP2 MSTORE PUSH1 0x40 DUP1 DUP5 KECCAK256 SLOAD DUP5 MSTORE PUSH1 0x3 DUP3 MSTORE DUP1 DUP5 KECCAK256 DUP2 MLOAD PUSH1 0x60 DUP2 ADD DUP4 MSTORE DUP2 SLOAD DUP2 MSTORE PUSH1 0x1 DUP3 ADD SLOAD SWAP4 DUP2 ADD SWAP4 SWAP1 SWAP4 MSTORE SWAP1 SWAP3 ADD SLOAD SWAP2 DUP2 ADD SWAP2 SWAP1 SWAP2 MSTORE DUP2 PUSH2 0x521 DUP5 PUSH2 0x64A JUMP JUMPDEST SWAP1 POP DUP2 PUSH1 0x40 ADD MLOAD DUP2 PUSH1 0x40 ADD MLOAD EQ PUSH2 0x53C JUMPI POP PUSH1 0x0 SWAP4 SWAP3 POP POP POP JUMP JUMPDEST DUP2 PUSH1 0x20 ADD MLOAD DUP2 PUSH1 0x20 ADD MLOAD EQ PUSH2 0x555 JUMPI POP PUSH1 0x0 SWAP4 SWAP3 POP POP POP JUMP JUMPDEST DUP2 MLOAD DUP2 MLOAD EQ PUSH2 0x568 JUMPI POP PUSH1 0x0 SWAP4 SWAP3 POP POP POP JUMP JUMPDEST POP PUSH1 0x1 SWAP4 SWAP3 POP POP POP JUMP JUMPDEST CALLER PUSH1 0x0 SWAP1 DUP2 MSTORE PUSH1 0x2 PUSH1 0x20 SWAP1 DUP2 MSTORE PUSH1 0x40 DUP1 DUP4 KECCAK256 SLOAD DUP1 DUP5 MSTORE PUSH1 0x1 SWAP1 SWAP3 MSTORE SWAP1 SWAP2 KECCAK256 SLOAD PUSH1 0x1 PUSH1 0x1 PUSH1 0xA0 SHL SUB AND PUSH2 0x5DB JUMPI PUSH1 0x40 MLOAD PUSH3 0x461BCD PUSH1 0xE5 SHL DUP2 MSTORE PUSH1 0x20 PUSH1 0x4 DUP3 ADD MSTORE PUSH1 0x12 PUSH1 0x24 DUP3 ADD MSTORE PUSH18 0x105B1C9958591E481A185CC818481CDBDD5B PUSH1 0x72 SHL PUSH1 0x44 DUP3 ADD MSTORE PUSH1 0x64 ADD PUSH2 0x1E7 JUMP JUMPDEST CALLER PUSH1 0x0 DUP2 DUP2 MSTORE PUSH1 0x2 PUSH1 0x20 DUP2 DUP2 MSTORE PUSH1 0x40 DUP1 DUP5 KECCAK256 DUP1 SLOAD DUP6 MSTORE PUSH1 0x3 DUP4 MSTORE DUP2 DUP6 KECCAK256 DUP9 MLOAD DUP2 SSTORE DUP9 DUP5 ADD MLOAD PUSH1 0x1 DUP3 ADD SSTORE DUP9 DUP4 ADD MLOAD SWAP1 DUP6 ADD SSTORE SWAP5 SWAP1 SWAP4 MSTORE SWAP1 DUP2 MSTORE SWAP2 SLOAD SWAP1 MLOAD SWAP1 DUP2 MSTORE PUSH32 0x164F7B2AB803097DAB5E39F06D2E4F3C3DDC5D4171ABBDCC3E76443B8359C7F5 SWAP2 ADD PUSH1 0x40 MLOAD DUP1 SWAP2 SUB SWAP1 LOG1 POP POP JUMP JUMPDEST PUSH1 0x40 DUP1 MLOAD PUSH1 0x60 DUP2 ADD DUP3 MSTORE PUSH1 0x0 DUP1 DUP3 MSTORE PUSH1 0x20 DUP3 ADD DUP2 SWAP1 MSTORE SWAP2 DUP2 ADD SWAP2 SWAP1 SWAP2 MSTORE PUSH1 0x40 DUP1 MLOAD PUSH1 0x60 DUP2 ADD DUP3 MSTORE PUSH1 0x0 DUP1 DUP3 MSTORE PUSH1 0x20 DUP3 ADD DUP2 SWAP1 MSTORE SWAP2 DUP2 ADD SWAP2 SWAP1 SWAP2 MSTORE DUP3 PUSH1 0x40 ADD MLOAD PUSH1 0x40 MLOAD PUSH1 0x20 ADD PUSH2 0x699 SWAP2 SWAP1 PUSH2 0x9A8 JUMP JUMPDEST PUSH1 0x40 DUP1 MLOAD PUSH1 0x1F NOT DUP2 DUP5 SUB ADD DUP2 MSTORE SWAP2 DUP2 MSTORE DUP2 MLOAD PUSH1 0x20 SWAP3 DUP4 ADD KECCAK256 DUP4 DUP3 ADD MSTORE DUP5 DUP3 ADD MLOAD SWAP1 MLOAD PUSH2 0x6C5 SWAP3 ADD PUSH2 0x9A8 JUMP JUMPDEST PUSH1 0x40 DUP1 MLOAD PUSH1 0x1F NOT DUP2 DUP5 SUB ADD DUP2 MSTORE SWAP2 DUP2 MSTORE DUP2 MLOAD PUSH1 0x20 SWAP3 DUP4 ADD KECCAK256 DUP4 DUP4 ADD MSTORE DUP5 MLOAD SWAP1 MLOAD PUSH2 0x6EF SWAP3 ADD PUSH2 0x9A8 JUMP JUMPDEST PUSH1 0x40 DUP1 MLOAD PUSH1 0x1F NOT DUP2 DUP5 SUB ADD DUP2 MSTORE SWAP2 SWAP1 MSTORE DUP1 MLOAD PUSH1 0x20 SWAP1 SWAP2 ADD KECCAK256 DUP2 MSTORE SWAP3 SWAP2 POP POP JUMP JUMPDEST DUP1 CALLDATALOAD PUSH1 0x1 PUSH1 0x1 PUSH1 0xA0 SHL SUB DUP2 AND DUP2 EQ PUSH2 0x726 JUMPI PUSH1 0x0 DUP1 REVERT JUMPDEST SWAP2 SWAP1 POP JUMP JUMPDEST PUSH4 0x4E487B71 PUSH1 0xE0 SHL PUSH1 0x0 MSTORE PUSH1 0x41 PUSH1 0x4 MSTORE PUSH1 0x24 PUSH1 0x0 REVERT JUMPDEST PUSH1 0x0 DUP3 PUSH1 0x1F DUP4 ADD SLT PUSH2 0x752 JUMPI PUSH1 0x0 DUP1 REVERT JUMPDEST DUP2 CALLDATALOAD PUSH8 0xFFFFFFFFFFFFFFFF DUP1 DUP3 GT ISZERO PUSH2 0x76D JUMPI PUSH2 0x76D PUSH2 0x72B JUMP JUMPDEST PUSH1 0x40 MLOAD PUSH1 0x1F DUP4 ADD PUSH1 0x1F NOT SWAP1 DUP2 AND PUSH1 0x3F ADD AND DUP2 ADD SWAP1 DUP3 DUP3 GT DUP2 DUP4 LT OR ISZERO PUSH2 0x795 JUMPI PUSH2 0x795 PUSH2 0x72B JUMP JUMPDEST DUP2 PUSH1 0x40 MSTORE DUP4 DUP2 MSTORE DUP7 PUSH1 0x20 DUP6 DUP9 ADD ADD GT ISZERO PUSH2 0x7AE JUMPI PUSH1 0x0 DUP1 REVERT JUMPDEST DUP4 PUSH1 0x20 DUP8 ADD PUSH1 0x20 DUP4 ADD CALLDATACOPY PUSH1 0x0 PUSH1 0x20 DUP6 DUP4 ADD ADD MSTORE DUP1 SWAP5 POP POP POP POP POP SWAP3 SWAP2 POP POP JUMP JUMPDEST PUSH1 0x0 PUSH1 0x60 DUP3 DUP5 SUB SLT ISZERO PUSH2 0x7E0 JUMPI PUSH1 0x0 DUP1 REVERT JUMPDEST PUSH1 0x40 MLOAD PUSH1 0x60 DUP2 ADD PUSH8 0xFFFFFFFFFFFFFFFF DUP3 DUP3 LT DUP2 DUP4 GT OR ISZERO PUSH2 0x804 JUMPI PUSH2 0x804 PUSH2 0x72B JUMP JUMPDEST DUP2 PUSH1 0x40 MSTORE DUP3 SWAP4 POP DUP5 CALLDATALOAD SWAP2 POP DUP1 DUP3 GT ISZERO PUSH2 0x81C JUMPI PUSH1 0x0 DUP1 REVERT JUMPDEST PUSH2 0x828 DUP7 DUP4 DUP8 ADD PUSH2 0x741 JUMP JUMPDEST DUP4 MSTORE PUSH1 0x20 DUP6 ADD CALLDATALOAD SWAP2 POP DUP1 DUP3 GT ISZERO PUSH2 0x83E JUMPI PUSH1 0x0 DUP1 REVERT JUMPDEST PUSH2 0x84A DUP7 DUP4 DUP8 ADD PUSH2 0x741 JUMP JUMPDEST PUSH1 0x20 DUP5 ADD MSTORE PUSH1 0x40 DUP6 ADD CALLDATALOAD SWAP2 POP DUP1 DUP3 GT ISZERO PUSH2 0x863 JUMPI PUSH1 0x0 DUP1 REVERT JUMPDEST POP PUSH2 0x870 DUP6 DUP3 DUP7 ADD PUSH2 0x741 JUMP JUMPDEST PUSH1 0x40 DUP4 ADD MSTORE POP POP SWAP3 SWAP2 POP POP JUMP JUMPDEST PUSH1 0x0 DUP1 PUSH1 0x0 PUSH1 0x60 DUP5 DUP7 SUB SLT ISZERO PUSH2 0x892 JUMPI PUSH1 0x0 DUP1 REVERT JUMPDEST PUSH2 0x89B DUP5 PUSH2 0x70F JUMP JUMPDEST SWAP3 POP PUSH1 0x20 DUP5 ADD CALLDATALOAD SWAP2 POP PUSH1 0x40 DUP5 ADD CALLDATALOAD PUSH8 0xFFFFFFFFFFFFFFFF DUP2 GT ISZERO PUSH2 0x8BE JUMPI PUSH1 0x0 DUP1 REVERT JUMPDEST PUSH2 0x8CA DUP7 DUP3 DUP8 ADD PUSH2 0x7CE JUMP JUMPDEST SWAP2 POP POP SWAP3 POP SWAP3 POP SWAP3 JUMP JUMPDEST PUSH1 0x0 PUSH1 0x20 DUP3 DUP5 SUB SLT ISZERO PUSH2 0x8E6 JUMPI PUSH1 0x0 DUP1 REVERT JUMPDEST POP CALLDATALOAD SWAP2 SWAP1 POP JUMP JUMPDEST PUSH1 0x0 PUSH1 0x20 DUP3 DUP5 SUB SLT ISZERO PUSH2 0x8FF JUMPI PUSH1 0x0 DUP1 REVERT JUMPDEST PUSH2 0x908 DUP3 PUSH2 0x70F JUMP JUMPDEST SWAP4 SWAP3 POP POP POP JUMP JUMPDEST PUSH1 0x0 PUSH1 0x20 DUP3 DUP5 SUB SLT ISZERO PUSH2 0x921 JUMPI PUSH1 0x0 DUP1 REVERT JUMPDEST DUP2 CALLDATALOAD PUSH8 0xFFFFFFFFFFFFFFFF DUP2 GT ISZERO PUSH2 0x938 JUMPI PUSH1 0x0 DUP1 REVERT JUMPDEST PUSH2 0x944 DUP5 DUP3 DUP6 ADD PUSH2 0x7CE JUMP JUMPDEST SWAP5 SWAP4 POP POP POP POP JUMP JUMPDEST PUSH1 0x0 PUSH1 0x60 DUP3 DUP5 SUB SLT ISZERO PUSH2 0x95E JUMPI PUSH1 0x0 DUP1 REVERT JUMPDEST PUSH1 0x40 MLOAD PUSH1 0x60 DUP2 ADD DUP2 DUP2 LT PUSH8 0xFFFFFFFFFFFFFFFF DUP3 GT OR ISZERO PUSH2 0x981 JUMPI PUSH2 0x981 PUSH2 0x72B JUMP JUMPDEST DUP1 PUSH1 0x40 MSTORE POP DUP3 CALLDATALOAD DUP2 MSTORE PUSH1 0x20 DUP4 ADD CALLDATALOAD PUSH1 0x20 DUP3 ADD MSTORE PUSH1 0x40 DUP4 ADD CALLDATALOAD PUSH1 0x40 DUP3 ADD MSTORE DUP1 SWAP2 POP POP SWAP3 SWAP2 POP POP JUMP JUMPDEST PUSH1 0x0 DUP3 MLOAD PUSH1 0x0 JUMPDEST DUP2 DUP2 LT ISZERO PUSH2 0x9C9 JUMPI PUSH1 0x20 DUP2 DUP7 ADD DUP2 ADD MLOAD DUP6 DUP4 ADD MSTORE ADD PUSH2 0x9AF JUMP JUMPDEST POP PUSH1 0x0 SWAP3 ADD SWAP2 DUP3 MSTORE POP SWAP2 SWAP1 POP JUMP INVALID LOG2 PUSH5 0x6970667358 0x22 SLT KECCAK256 SWAP14 0xE7 SELFBALANCE ADDRESS 0xCE EXP PUSH4 0xA5166A70 0x1E DUP10 0xE9 SWAP9 ORIGIN SWAP11 JUMPI 0xE LOG0 GASPRICE 0xC1 MULMOD PUSH4 0xE015281A 0xD6 JUMP SWAP6 LOG4 PUSH5 0x736F6C6343 STOP ADDMOD GT STOP CALLER ",
  "sha1": "6658176469c98b612508fabf601c8bf8ce1afe4d",
  "source": "// SPDX-License-Identifier: MIT\npragma solidity ^0.8.17;\n\n// import \"./sbt-achievements.sol\";\n\ncontract SBT {\n    modifier soulExists(uint _soul_id) {\n        require(addressOfSoul[_soul_id] != address(0), \"Already has a soul\");\n        _;\n    }\n\n    modifier soulDoesntExist(uint _soul_id) {\n        require(addressOfSoul[_soul_id] == address(0), \"Already has a soul\");\n        _;\n    }\n\n    struct PersonalDataHashed {\n        bytes32 url_hash;\n        bytes32 github_url_hash;\n        bytes32 email_address_hash;\n    }\n\n    struct PersonalData {\n        string url;\n        string github_url;\n        string email_address;\n    }\n\n    struct Soul {\n        // uint soul_id;\n        PersonalDataHashed hashedData;\n    }\n\n    address public operator;\n    event Mint(address _soul);\n    event Burn(uint _soul_id_to_burn);\n    event Update(uint _soul_id_to_update);\n\n    constructor() {\n        operator = msg.sender;\n    }\n\n    mapping(uint => address) addressOfSoul; //soul_id => address of owner\n    mapping(address => uint) soulIdOfAddress; //address => soul_id\n    mapping(uint => Soul) souls;\n\n    // Function that hashes content of user's hashedData. Must be rewritten if PersonalData fields change.\n    function hashPersonalData(PersonalData memory _data) internal pure returns(PersonalDataHashed memory) {\n        PersonalDataHashed memory hashedData;\n        hashedData.email_address_hash = keccak256(abi.encodePacked(_data.email_address));\n        hashedData.github_url_hash = keccak256(abi.encodePacked(_data.github_url));\n        hashedData.url_hash = keccak256(abi.encodePacked(_data.url));\n        return hashedData;\n    }\n\n    // Mints the SBT for given address and with given soul_id. Can be called only by this contract.\n    function mint(\n        address _soul_address,\n        uint _soul_id,\n        PersonalData memory _soulData\n    ) external soulDoesntExist(_soul_id) {\n        require(msg.sender == operator, \"Only operator can mint new souls\");\n        addressOfSoul[_soul_id] = _soul_address;\n        soulIdOfAddress[_soul_address] = _soul_id;\n        // souls[_soul_id].soul_id = _soul_id;\n        souls[_soul_id].hashedData = hashPersonalData(_soulData);\n        emit Mint(_soul_address);\n    }\n\n    // Deletes SBT of msg.sender from storage.\n    function burn(uint _soul_id_to_burn) external {\n        delete souls[_soul_id_to_burn];\n        delete soulIdOfAddress[addressOfSoul[_soul_id_to_burn]];\n        delete addressOfSoul[_soul_id_to_burn];\n        emit Burn(_soul_id_to_burn);\n    }\n\n    // Updates hashedData of msg.sender's SBT by replacing with '_newSoulData'.\n    function update(PersonalDataHashed memory _newSoulData)\n        external\n        soulExists(soulIdOfAddress[msg.sender])\n    {\n        souls[soulIdOfAddress[msg.sender]].hashedData = _newSoulData;\n        emit Update(soulIdOfAddress[msg.sender]);\n    }\n\n    // Returns true, if there is an SBT for given address.\n    function hasSoul(address _soul) external view returns (bool) {\n        return soulIdOfAddress[_soul] != 0;\n    }\n\n    // Returns SBT of given address, if there is one; otherwise throws an error.\n    function getSoul(address _soul) external view returns (Soul memory) {\n        require(soulIdOfAddress[_soul] != 0, \"Soul doesn't exist\");\n        return souls[soulIdOfAddress[_soul]];\n    }\n\n    // Returns owner of given '_soul_id', if there is one; otherwise returns NULL-address.\n    function getOwner(uint _soul_id) external view returns (address) {\n        require(\n            msg.sender == operator,\n            \"Only this contract can view this hashed data\"\n        );\n        return addressOfSoul[_soul_id];\n    }\n\n    // Allows user to verify, that their data stored in our app is it's own and doesn't change.\n    function verifyDataCorrectness(PersonalData memory _dataToVerify) external view returns (bool) {\n        PersonalDataHashed memory hashedDataFromStorage = souls[soulIdOfAddress[msg.sender]].hashedData;\n        PersonalDataHashed memory hashedDataToVerify = hashPersonalData(_dataToVerify);\n        if (hashedDataToVerify.email_address_hash != hashedDataFromStorage.email_address_hash) {\n            return false;\n        }\n        if (hashedDataToVerify.github_url_hash != hashedDataFromStorage.github_url_hash) {\n            return false;\n        }\n        if (hashedDataToVerify.url_hash != hashedDataFromStorage.url_hash) {\n            return false;\n        }\n        return true;\n    } \n}\n",
  "sourcePath": "contracts/sbt.sol",
  "type": "contract"
}