{
  "abi": [
    {
      "inputs": [],
      "stateMutability": "nonpayable",
      "type": "constructor"
    },
    {
      "anonymous": false,
      "inputs": [
        {
          "indexed": false,
          "internalType": "uint256",
          "name": "achievement_id",
          "type": "uint256"
        }
      ],
      "name": "Burn",
      "type": "event"
    },
    {
      "anonymous": false,
      "inputs": [
        {
          "indexed": false,
          "internalType": "uint256",
          "name": "achievement_id",
          "type": "uint256"
        }
      ],
      "name": "Mint",
      "type": "event"
    },
    {
      "anonymous": false,
      "inputs": [
        {
          "indexed": false,
          "internalType": "uint256",
          "name": "achievement_id",
          "type": "uint256"
        }
      ],
      "name": "Update",
      "type": "event"
    },
    {
      "anonymous": false,
      "inputs": [
        {
          "indexed": false,
          "internalType": "uint256",
          "name": "achievement_id",
          "type": "uint256"
        }
      ],
      "name": "Verify",
      "type": "event"
    },
    {
      "inputs": [
        {
          "internalType": "uint256",
          "name": "_achievementId",
          "type": "uint256"
        }
      ],
      "name": "burn",
      "outputs": [],
      "stateMutability": "nonpayable",
      "type": "function"
    },
    {
      "inputs": [
        {
          "internalType": "uint256",
          "name": "_achievementId",
          "type": "uint256"
        },
        {
          "internalType": "bool",
          "name": "_newStatus",
          "type": "bool"
        }
      ],
      "name": "changeAchievementVerification",
      "outputs": [],
      "stateMutability": "nonpayable",
      "type": "function"
    },
    {
      "inputs": [
        {
          "components": [
            {
              "internalType": "uint256",
              "name": "achievement_id",
              "type": "uint256"
            },
            {
              "internalType": "uint256",
              "name": "achievement_type",
              "type": "uint256"
            },
            {
              "internalType": "address",
              "name": "issuer",
              "type": "address"
            },
            {
              "internalType": "bool",
              "name": "can_owner_be_changed",
              "type": "bool"
            },
            {
              "internalType": "address",
              "name": "owner",
              "type": "address"
            },
            {
              "internalType": "address",
              "name": "verifier",
              "type": "address"
            },
            {
              "internalType": "bool",
              "name": "is_verified",
              "type": "bool"
            },
            {
              "internalType": "bytes32",
              "name": "data_hash",
              "type": "bytes32"
            }
          ],
          "internalType": "struct SBT_achievement.Achievement",
          "name": "_achievementData",
          "type": "tuple"
        }
      ],
      "name": "mint",
      "outputs": [],
      "stateMutability": "nonpayable",
      "type": "function"
    },
    {
      "inputs": [],
      "name": "operator",
      "outputs": [
        {
          "internalType": "address",
          "name": "",
          "type": "address"
        }
      ],
      "stateMutability": "view",
      "type": "function"
    },
    {
      "inputs": [
        {
          "internalType": "uint256",
          "name": "_achievementId",
          "type": "uint256"
        },
        {
          "internalType": "address",
          "name": "_newOwner",
          "type": "address"
        }
      ],
      "name": "updateOwner",
      "outputs": [],
      "stateMutability": "nonpayable",
      "type": "function"
    }
  ],
  "bytecode": "608060405234801561001057600080fd5b50600380546001600160a01b03191633179055610861806100326000396000f3fe608060405234801561001057600080fd5b50600436106100575760003560e01c806342966c681461005c578063570ca735146100715780637192711f146100a0578063f3913577146100b3578063fb17cac9146100c6575b600080fd5b61006f61006a366004610699565b6100d9565b005b600354610084906001600160a01b031681565b6040516001600160a01b03909116815260200160405180910390f35b61006f6100ae3660046106ce565b61037f565b61006f6100c136600461070a565b6104d5565b61006f6100d43660046107cb565b6105bf565b6000818152602081905260409020600201546001600160a01b031633146101555760405162461bcd60e51b815260206004820152602560248201527f4f6e6c79206973737565722063616e2064656c65746520616e20616368696576604482015264195b595b9d60da1b60648201526084015b60405180910390fd5b60005b600082815260208181526040808320600201546001600160a01b03168352600190915290205481101561022657600082815260208181526040808320600201546001600160a01b03168352600190915290208054829081106101bc576101bc6107ee565b9060005260206000200154820361021457600082815260208181526040808320600201546001600160a01b0316835260019091529020805482908110610204576102046107ee565b6000918252602082200155610226565b8061021e81610804565b915050610158565b5060005b600082815260208181526040808320600301546001600160a01b0316835260029091529020548110156102f857600082815260208181526040808320600301546001600160a01b031683526002909152902080548290811061028e5761028e6107ee565b906000526020600020015482036102e657600082815260208181526040808320600301546001600160a01b03168352600290915290208054829081106102d6576102d66107ee565b60009182526020822001556102f8565b806102f081610804565b91505061022a565b50600081815260208181526040808320838155600181018490556002810180546001600160a81b03199081169091556003820180546001600160a01b031916905560048201805490911690556005019290925590518281527fb90306ad06b2a6ff86ddc9327db583062895ef6540e62dc50add009db5b356eb91015b60405180910390a150565b6000828152602081905260409020600201546001600160a01b031633146103e85760405162461bcd60e51b815260206004820152601f60248201527f4f6e6c79206973737565722063616e206368616e676520616e206f776e657200604482015260640161014c565b600082815260208190526040902060020154600160a01b900460ff166104655760405162461bcd60e51b815260206004820152602c60248201527f4f776e6572206f66207468697320616368696576656d656e742063616e206e6f60448201526b1d0818994818da185b99d95960a21b606482015260840161014c565b600082815260208181526040918290206003810180546001600160a01b0319166001600160a01b038616179055600201805460ff60a01b1916905590518381527f164f7b2ab803097dab5e39f06d2e4f3c3ddc5d4171abbdcc3e76443b8359c7f591015b60405180910390a15050565b80604001516001600160a01b0316336001600160a01b03161461053a5760405162461bcd60e51b815260206004820152601960248201527f4f6e6c7920796f752063616e20626520616e2069737375657200000000000000604482015260640161014c565b6040818101516001600160a01b03908116600090815260016020818152848320865181548085018355918552828520909101556080860151909316825260028352838220855181549283018255908352918390200155825191519182527f07883703ed0e86588a40d76551c92f8a4b329e3bf19765e0e6749473c1a846659101610374565b6000828152602081905260409020600401546001600160a01b031633146106445760405162461bcd60e51b815260206004820152603360248201527f4f6e6c792076657269666965722063616e20766572696679206f7220756e76656044820152721c9a599e48185b881858da1a595d995b595b9d606a1b606482015260840161014c565b60008281526020818152604091829020600401805460ff60a01b1916600160a01b8515150217905590518381527f67906c359406b656ede2f92b8a4d3d5682460884db38c6dff19a96ecd68ee64c91016104c9565b6000602082840312156106ab57600080fd5b5035919050565b80356001600160a01b03811681146106c957600080fd5b919050565b600080604083850312156106e157600080fd5b823591506106f1602084016106b2565b90509250929050565b803580151581146106c957600080fd5b600061010080838503121561071e57600080fd5b6040519081019067ffffffffffffffff8211818310171561074f57634e487b7160e01b600052604160045260246000fd5b81604052833581526020840135602082015261076d604085016106b2565b604082015261077e606085016106fa565b606082015261078f608085016106b2565b60808201526107a060a085016106b2565b60a08201526107b160c085016106fa565b60c082015260e084013560e0820152809250505092915050565b600080604083850312156107de57600080fd5b823591506106f1602084016106fa565b634e487b7160e01b600052603260045260246000fd5b60006001820161082457634e487b7160e01b600052601160045260246000fd5b506001019056fea26469706673582212200a59f005ae3d63e4d6e8a6e88dc3040a0eb26f48a29e6d182f0cec000bdc7c8b64736f6c63430008110033",
  "bytecodeSha1": "9e68a15b422dc8260f02019020ad918b329d8c85",
  "compiler": {
    "evm_version": "istanbul",
    "optimizer": {
      "enabled": true,
      "runs": 200
    },
    "version": "0.8.17+commit.8df45f5f"
  },
  "contractName": "SBT_achievement",
  "language": "Solidity",
  "natspec": {
    "kind": "dev",
    "methods": {},
    "version": 1
  },
  "opcodes": "PUSH1 0x80 PUSH1 0x40 MSTORE CALLVALUE DUP1 ISZERO PUSH2 0x10 JUMPI PUSH1 0x0 DUP1 REVERT JUMPDEST POP PUSH1 0x4 CALLDATASIZE LT PUSH2 0x57 JUMPI PUSH1 0x0 CALLDATALOAD PUSH1 0xE0 SHR DUP1 PUSH4 0x42966C68 EQ PUSH2 0x5C JUMPI DUP1 PUSH4 0x570CA735 EQ PUSH2 0x71 JUMPI DUP1 PUSH4 0x7192711F EQ PUSH2 0xA0 JUMPI DUP1 PUSH4 0xF3913577 EQ PUSH2 0xB3 JUMPI DUP1 PUSH4 0xFB17CAC9 EQ PUSH2 0xC6 JUMPI JUMPDEST PUSH1 0x0 DUP1 REVERT JUMPDEST PUSH2 0x6F PUSH2 0x6A CALLDATASIZE PUSH1 0x4 PUSH2 0x699 JUMP JUMPDEST PUSH2 0xD9 JUMP JUMPDEST STOP JUMPDEST PUSH1 0x3 SLOAD PUSH2 0x84 SWAP1 PUSH1 0x1 PUSH1 0x1 PUSH1 0xA0 SHL SUB AND DUP2 JUMP JUMPDEST PUSH1 0x40 MLOAD PUSH1 0x1 PUSH1 0x1 PUSH1 0xA0 SHL SUB SWAP1 SWAP2 AND DUP2 MSTORE PUSH1 0x20 ADD PUSH1 0x40 MLOAD DUP1 SWAP2 SUB SWAP1 RETURN JUMPDEST PUSH2 0x6F PUSH2 0xAE CALLDATASIZE PUSH1 0x4 PUSH2 0x6CE JUMP JUMPDEST PUSH2 0x37F JUMP JUMPDEST PUSH2 0x6F PUSH2 0xC1 CALLDATASIZE PUSH1 0x4 PUSH2 0x70A JUMP JUMPDEST PUSH2 0x4D5 JUMP JUMPDEST PUSH2 0x6F PUSH2 0xD4 CALLDATASIZE PUSH1 0x4 PUSH2 0x7CB JUMP JUMPDEST PUSH2 0x5BF JUMP JUMPDEST PUSH1 0x0 DUP2 DUP2 MSTORE PUSH1 0x20 DUP2 SWAP1 MSTORE PUSH1 0x40 SWAP1 KECCAK256 PUSH1 0x2 ADD SLOAD PUSH1 0x1 PUSH1 0x1 PUSH1 0xA0 SHL SUB AND CALLER EQ PUSH2 0x155 JUMPI PUSH1 0x40 MLOAD PUSH3 0x461BCD PUSH1 0xE5 SHL DUP2 MSTORE PUSH1 0x20 PUSH1 0x4 DUP3 ADD MSTORE PUSH1 0x25 PUSH1 0x24 DUP3 ADD MSTORE PUSH32 0x4F6E6C79206973737565722063616E2064656C65746520616E20616368696576 PUSH1 0x44 DUP3 ADD MSTORE PUSH5 0x195B595B9D PUSH1 0xDA SHL PUSH1 0x64 DUP3 ADD MSTORE PUSH1 0x84 ADD JUMPDEST PUSH1 0x40 MLOAD DUP1 SWAP2 SUB SWAP1 REVERT JUMPDEST PUSH1 0x0 JUMPDEST PUSH1 0x0 DUP3 DUP2 MSTORE PUSH1 0x20 DUP2 DUP2 MSTORE PUSH1 0x40 DUP1 DUP4 KECCAK256 PUSH1 0x2 ADD SLOAD PUSH1 0x1 PUSH1 0x1 PUSH1 0xA0 SHL SUB AND DUP4 MSTORE PUSH1 0x1 SWAP1 SWAP2 MSTORE SWAP1 KECCAK256 SLOAD DUP2 LT ISZERO PUSH2 0x226 JUMPI PUSH1 0x0 DUP3 DUP2 MSTORE PUSH1 0x20 DUP2 DUP2 MSTORE PUSH1 0x40 DUP1 DUP4 KECCAK256 PUSH1 0x2 ADD SLOAD PUSH1 0x1 PUSH1 0x1 PUSH1 0xA0 SHL SUB AND DUP4 MSTORE PUSH1 0x1 SWAP1 SWAP2 MSTORE SWAP1 KECCAK256 DUP1 SLOAD DUP3 SWAP1 DUP2 LT PUSH2 0x1BC JUMPI PUSH2 0x1BC PUSH2 0x7EE JUMP JUMPDEST SWAP1 PUSH1 0x0 MSTORE PUSH1 0x20 PUSH1 0x0 KECCAK256 ADD SLOAD DUP3 SUB PUSH2 0x214 JUMPI PUSH1 0x0 DUP3 DUP2 MSTORE PUSH1 0x20 DUP2 DUP2 MSTORE PUSH1 0x40 DUP1 DUP4 KECCAK256 PUSH1 0x2 ADD SLOAD PUSH1 0x1 PUSH1 0x1 PUSH1 0xA0 SHL SUB AND DUP4 MSTORE PUSH1 0x1 SWAP1 SWAP2 MSTORE SWAP1 KECCAK256 DUP1 SLOAD DUP3 SWAP1 DUP2 LT PUSH2 0x204 JUMPI PUSH2 0x204 PUSH2 0x7EE JUMP JUMPDEST PUSH1 0x0 SWAP2 DUP3 MSTORE PUSH1 0x20 DUP3 KECCAK256 ADD SSTORE PUSH2 0x226 JUMP JUMPDEST DUP1 PUSH2 0x21E DUP2 PUSH2 0x804 JUMP JUMPDEST SWAP2 POP POP PUSH2 0x158 JUMP JUMPDEST POP PUSH1 0x0 JUMPDEST PUSH1 0x0 DUP3 DUP2 MSTORE PUSH1 0x20 DUP2 DUP2 MSTORE PUSH1 0x40 DUP1 DUP4 KECCAK256 PUSH1 0x3 ADD SLOAD PUSH1 0x1 PUSH1 0x1 PUSH1 0xA0 SHL SUB AND DUP4 MSTORE PUSH1 0x2 SWAP1 SWAP2 MSTORE SWAP1 KECCAK256 SLOAD DUP2 LT ISZERO PUSH2 0x2F8 JUMPI PUSH1 0x0 DUP3 DUP2 MSTORE PUSH1 0x20 DUP2 DUP2 MSTORE PUSH1 0x40 DUP1 DUP4 KECCAK256 PUSH1 0x3 ADD SLOAD PUSH1 0x1 PUSH1 0x1 PUSH1 0xA0 SHL SUB AND DUP4 MSTORE PUSH1 0x2 SWAP1 SWAP2 MSTORE SWAP1 KECCAK256 DUP1 SLOAD DUP3 SWAP1 DUP2 LT PUSH2 0x28E JUMPI PUSH2 0x28E PUSH2 0x7EE JUMP JUMPDEST SWAP1 PUSH1 0x0 MSTORE PUSH1 0x20 PUSH1 0x0 KECCAK256 ADD SLOAD DUP3 SUB PUSH2 0x2E6 JUMPI PUSH1 0x0 DUP3 DUP2 MSTORE PUSH1 0x20 DUP2 DUP2 MSTORE PUSH1 0x40 DUP1 DUP4 KECCAK256 PUSH1 0x3 ADD SLOAD PUSH1 0x1 PUSH1 0x1 PUSH1 0xA0 SHL SUB AND DUP4 MSTORE PUSH1 0x2 SWAP1 SWAP2 MSTORE SWAP1 KECCAK256 DUP1 SLOAD DUP3 SWAP1 DUP2 LT PUSH2 0x2D6 JUMPI PUSH2 0x2D6 PUSH2 0x7EE JUMP JUMPDEST PUSH1 0x0 SWAP2 DUP3 MSTORE PUSH1 0x20 DUP3 KECCAK256 ADD SSTORE PUSH2 0x2F8 JUMP JUMPDEST DUP1 PUSH2 0x2F0 DUP2 PUSH2 0x804 JUMP JUMPDEST SWAP2 POP POP PUSH2 0x22A JUMP JUMPDEST POP PUSH1 0x0 DUP2 DUP2 MSTORE PUSH1 0x20 DUP2 DUP2 MSTORE PUSH1 0x40 DUP1 DUP4 KECCAK256 DUP4 DUP2 SSTORE PUSH1 0x1 DUP2 ADD DUP5 SWAP1 SSTORE PUSH1 0x2 DUP2 ADD DUP1 SLOAD PUSH1 0x1 PUSH1 0x1 PUSH1 0xA8 SHL SUB NOT SWAP1 DUP2 AND SWAP1 SWAP2 SSTORE PUSH1 0x3 DUP3 ADD DUP1 SLOAD PUSH1 0x1 PUSH1 0x1 PUSH1 0xA0 SHL SUB NOT AND SWAP1 SSTORE PUSH1 0x4 DUP3 ADD DUP1 SLOAD SWAP1 SWAP2 AND SWAP1 SSTORE PUSH1 0x5 ADD SWAP3 SWAP1 SWAP3 SSTORE SWAP1 MLOAD DUP3 DUP2 MSTORE PUSH32 0xB90306AD06B2A6FF86DDC9327DB583062895EF6540E62DC50ADD009DB5B356EB SWAP2 ADD JUMPDEST PUSH1 0x40 MLOAD DUP1 SWAP2 SUB SWAP1 LOG1 POP JUMP JUMPDEST PUSH1 0x0 DUP3 DUP2 MSTORE PUSH1 0x20 DUP2 SWAP1 MSTORE PUSH1 0x40 SWAP1 KECCAK256 PUSH1 0x2 ADD SLOAD PUSH1 0x1 PUSH1 0x1 PUSH1 0xA0 SHL SUB AND CALLER EQ PUSH2 0x3E8 JUMPI PUSH1 0x40 MLOAD PUSH3 0x461BCD PUSH1 0xE5 SHL DUP2 MSTORE PUSH1 0x20 PUSH1 0x4 DUP3 ADD MSTORE PUSH1 0x1F PUSH1 0x24 DUP3 ADD MSTORE PUSH32 0x4F6E6C79206973737565722063616E206368616E676520616E206F776E657200 PUSH1 0x44 DUP3 ADD MSTORE PUSH1 0x64 ADD PUSH2 0x14C JUMP JUMPDEST PUSH1 0x0 DUP3 DUP2 MSTORE PUSH1 0x20 DUP2 SWAP1 MSTORE PUSH1 0x40 SWAP1 KECCAK256 PUSH1 0x2 ADD SLOAD PUSH1 0x1 PUSH1 0xA0 SHL SWAP1 DIV PUSH1 0xFF AND PUSH2 0x465 JUMPI PUSH1 0x40 MLOAD PUSH3 0x461BCD PUSH1 0xE5 SHL DUP2 MSTORE PUSH1 0x20 PUSH1 0x4 DUP3 ADD MSTORE PUSH1 0x2C PUSH1 0x24 DUP3 ADD MSTORE PUSH32 0x4F776E6572206F66207468697320616368696576656D656E742063616E206E6F PUSH1 0x44 DUP3 ADD MSTORE PUSH12 0x1D0818994818DA185B99D959 PUSH1 0xA2 SHL PUSH1 0x64 DUP3 ADD MSTORE PUSH1 0x84 ADD PUSH2 0x14C JUMP JUMPDEST PUSH1 0x0 DUP3 DUP2 MSTORE PUSH1 0x20 DUP2 DUP2 MSTORE PUSH1 0x40 SWAP2 DUP3 SWAP1 KECCAK256 PUSH1 0x3 DUP2 ADD DUP1 SLOAD PUSH1 0x1 PUSH1 0x1 PUSH1 0xA0 SHL SUB NOT AND PUSH1 0x1 PUSH1 0x1 PUSH1 0xA0 SHL SUB DUP7 AND OR SWAP1 SSTORE PUSH1 0x2 ADD DUP1 SLOAD PUSH1 0xFF PUSH1 0xA0 SHL NOT AND SWAP1 SSTORE SWAP1 MLOAD DUP4 DUP2 MSTORE PUSH32 0x164F7B2AB803097DAB5E39F06D2E4F3C3DDC5D4171ABBDCC3E76443B8359C7F5 SWAP2 ADD JUMPDEST PUSH1 0x40 MLOAD DUP1 SWAP2 SUB SWAP1 LOG1 POP POP JUMP JUMPDEST DUP1 PUSH1 0x40 ADD MLOAD PUSH1 0x1 PUSH1 0x1 PUSH1 0xA0 SHL SUB AND CALLER PUSH1 0x1 PUSH1 0x1 PUSH1 0xA0 SHL SUB AND EQ PUSH2 0x53A JUMPI PUSH1 0x40 MLOAD PUSH3 0x461BCD PUSH1 0xE5 SHL DUP2 MSTORE PUSH1 0x20 PUSH1 0x4 DUP3 ADD MSTORE PUSH1 0x19 PUSH1 0x24 DUP3 ADD MSTORE PUSH32 0x4F6E6C7920796F752063616E20626520616E2069737375657200000000000000 PUSH1 0x44 DUP3 ADD MSTORE PUSH1 0x64 ADD PUSH2 0x14C JUMP JUMPDEST PUSH1 0x40 DUP2 DUP2 ADD MLOAD PUSH1 0x1 PUSH1 0x1 PUSH1 0xA0 SHL SUB SWAP1 DUP2 AND PUSH1 0x0 SWAP1 DUP2 MSTORE PUSH1 0x1 PUSH1 0x20 DUP2 DUP2 MSTORE DUP5 DUP4 KECCAK256 DUP7 MLOAD DUP2 SLOAD DUP1 DUP6 ADD DUP4 SSTORE SWAP2 DUP6 MSTORE DUP3 DUP6 KECCAK256 SWAP1 SWAP2 ADD SSTORE PUSH1 0x80 DUP7 ADD MLOAD SWAP1 SWAP4 AND DUP3 MSTORE PUSH1 0x2 DUP4 MSTORE DUP4 DUP3 KECCAK256 DUP6 MLOAD DUP2 SLOAD SWAP3 DUP4 ADD DUP3 SSTORE SWAP1 DUP4 MSTORE SWAP2 DUP4 SWAP1 KECCAK256 ADD SSTORE DUP3 MLOAD SWAP2 MLOAD SWAP2 DUP3 MSTORE PUSH32 0x7883703ED0E86588A40D76551C92F8A4B329E3BF19765E0E6749473C1A84665 SWAP2 ADD PUSH2 0x374 JUMP JUMPDEST PUSH1 0x0 DUP3 DUP2 MSTORE PUSH1 0x20 DUP2 SWAP1 MSTORE PUSH1 0x40 SWAP1 KECCAK256 PUSH1 0x4 ADD SLOAD PUSH1 0x1 PUSH1 0x1 PUSH1 0xA0 SHL SUB AND CALLER EQ PUSH2 0x644 JUMPI PUSH1 0x40 MLOAD PUSH3 0x461BCD PUSH1 0xE5 SHL DUP2 MSTORE PUSH1 0x20 PUSH1 0x4 DUP3 ADD MSTORE PUSH1 0x33 PUSH1 0x24 DUP3 ADD MSTORE PUSH32 0x4F6E6C792076657269666965722063616E20766572696679206F7220756E7665 PUSH1 0x44 DUP3 ADD MSTORE PUSH19 0x1C9A599E48185B881858DA1A595D995B595B9D PUSH1 0x6A SHL PUSH1 0x64 DUP3 ADD MSTORE PUSH1 0x84 ADD PUSH2 0x14C JUMP JUMPDEST PUSH1 0x0 DUP3 DUP2 MSTORE PUSH1 0x20 DUP2 DUP2 MSTORE PUSH1 0x40 SWAP2 DUP3 SWAP1 KECCAK256 PUSH1 0x4 ADD DUP1 SLOAD PUSH1 0xFF PUSH1 0xA0 SHL NOT AND PUSH1 0x1 PUSH1 0xA0 SHL DUP6 ISZERO ISZERO MUL OR SWAP1 SSTORE SWAP1 MLOAD DUP4 DUP2 MSTORE PUSH32 0x67906C359406B656EDE2F92B8A4D3D5682460884DB38C6DFF19A96ECD68EE64C SWAP2 ADD PUSH2 0x4C9 JUMP JUMPDEST PUSH1 0x0 PUSH1 0x20 DUP3 DUP5 SUB SLT ISZERO PUSH2 0x6AB JUMPI PUSH1 0x0 DUP1 REVERT JUMPDEST POP CALLDATALOAD SWAP2 SWAP1 POP JUMP JUMPDEST DUP1 CALLDATALOAD PUSH1 0x1 PUSH1 0x1 PUSH1 0xA0 SHL SUB DUP2 AND DUP2 EQ PUSH2 0x6C9 JUMPI PUSH1 0x0 DUP1 REVERT JUMPDEST SWAP2 SWAP1 POP JUMP JUMPDEST PUSH1 0x0 DUP1 PUSH1 0x40 DUP4 DUP6 SUB SLT ISZERO PUSH2 0x6E1 JUMPI PUSH1 0x0 DUP1 REVERT JUMPDEST DUP3 CALLDATALOAD SWAP2 POP PUSH2 0x6F1 PUSH1 0x20 DUP5 ADD PUSH2 0x6B2 JUMP JUMPDEST SWAP1 POP SWAP3 POP SWAP3 SWAP1 POP JUMP JUMPDEST DUP1 CALLDATALOAD DUP1 ISZERO ISZERO DUP2 EQ PUSH2 0x6C9 JUMPI PUSH1 0x0 DUP1 REVERT JUMPDEST PUSH1 0x0 PUSH2 0x100 DUP1 DUP4 DUP6 SUB SLT ISZERO PUSH2 0x71E JUMPI PUSH1 0x0 DUP1 REVERT JUMPDEST PUSH1 0x40 MLOAD SWAP1 DUP2 ADD SWAP1 PUSH8 0xFFFFFFFFFFFFFFFF DUP3 GT DUP2 DUP4 LT OR ISZERO PUSH2 0x74F JUMPI PUSH4 0x4E487B71 PUSH1 0xE0 SHL PUSH1 0x0 MSTORE PUSH1 0x41 PUSH1 0x4 MSTORE PUSH1 0x24 PUSH1 0x0 REVERT JUMPDEST DUP2 PUSH1 0x40 MSTORE DUP4 CALLDATALOAD DUP2 MSTORE PUSH1 0x20 DUP5 ADD CALLDATALOAD PUSH1 0x20 DUP3 ADD MSTORE PUSH2 0x76D PUSH1 0x40 DUP6 ADD PUSH2 0x6B2 JUMP JUMPDEST PUSH1 0x40 DUP3 ADD MSTORE PUSH2 0x77E PUSH1 0x60 DUP6 ADD PUSH2 0x6FA JUMP JUMPDEST PUSH1 0x60 DUP3 ADD MSTORE PUSH2 0x78F PUSH1 0x80 DUP6 ADD PUSH2 0x6B2 JUMP JUMPDEST PUSH1 0x80 DUP3 ADD MSTORE PUSH2 0x7A0 PUSH1 0xA0 DUP6 ADD PUSH2 0x6B2 JUMP JUMPDEST PUSH1 0xA0 DUP3 ADD MSTORE PUSH2 0x7B1 PUSH1 0xC0 DUP6 ADD PUSH2 0x6FA JUMP JUMPDEST PUSH1 0xC0 DUP3 ADD MSTORE PUSH1 0xE0 DUP5 ADD CALLDATALOAD PUSH1 0xE0 DUP3 ADD MSTORE DUP1 SWAP3 POP POP POP SWAP3 SWAP2 POP POP JUMP JUMPDEST PUSH1 0x0 DUP1 PUSH1 0x40 DUP4 DUP6 SUB SLT ISZERO PUSH2 0x7DE JUMPI PUSH1 0x0 DUP1 REVERT JUMPDEST DUP3 CALLDATALOAD SWAP2 POP PUSH2 0x6F1 PUSH1 0x20 DUP5 ADD PUSH2 0x6FA JUMP JUMPDEST PUSH4 0x4E487B71 PUSH1 0xE0 SHL PUSH1 0x0 MSTORE PUSH1 0x32 PUSH1 0x4 MSTORE PUSH1 0x24 PUSH1 0x0 REVERT JUMPDEST PUSH1 0x0 PUSH1 0x1 DUP3 ADD PUSH2 0x824 JUMPI PUSH4 0x4E487B71 PUSH1 0xE0 SHL PUSH1 0x0 MSTORE PUSH1 0x11 PUSH1 0x4 MSTORE PUSH1 0x24 PUSH1 0x0 REVERT JUMPDEST POP PUSH1 0x1 ADD SWAP1 JUMP INVALID LOG2 PUSH5 0x6970667358 0x22 SLT KECCAK256 EXP MSIZE CREATE SDIV 0xAE RETURNDATASIZE PUSH4 0xE4D6E8A6 0xE8 DUP14 0xC3 DIV EXP 0xE 0xB2 PUSH16 0x48A29E6D182F0CEC000BDC7C8B64736F PUSH13 0x63430008110033000000000000 ",
  "sha1": "4a79676bab2288f891cb463e61d1c770db778284",
  "source": "// SPDX-License-Identifier: MIT\npragma solidity ^0.8.17;\n\n\ncontract SBT_achievement {\n    struct Achievement {\n        uint achievement_id;\n        uint achievement_type;\n\n        address issuer;\n        bool can_owner_be_changed;\n        address owner;\n\n        address verifier;\n        bool is_verified;\n\n        bytes32 data_hash;\n    }\n\n    mapping (uint => Achievement) private achievements;\n    mapping (address => uint[]) private issuersAchievements;\n    mapping (address => uint[]) private usersAchievements;\n\n    address public operator;\n\n    event Mint(uint achievement_id);\n    event Burn(uint achievement_id);\n    event Update(uint achievement_id);\n    event Verify(uint achievement_id);\n\n    constructor() {\n      operator = msg.sender;\n    }\n\n    function mint(Achievement memory _achievementData) external {\n        require(msg.sender == _achievementData.issuer, \"Only you can be an issuer\");\n        issuersAchievements[_achievementData.issuer].push(_achievementData.achievement_id);\n        usersAchievements[_achievementData.owner].push(_achievementData.achievement_id);\n        emit Mint(_achievementData.achievement_id);\n    }\n\n    function burn(uint _achievementId) external {\n        require(msg.sender == achievements[_achievementId].issuer, \"Only issuer can delete an achievement\");\n        for (uint i=0; i<issuersAchievements[achievements[_achievementId].issuer].length; i++) {\n            if (_achievementId == issuersAchievements[achievements[_achievementId].issuer][i]) {\n                delete issuersAchievements[achievements[_achievementId].issuer][i];\n                break;\n            }\n        }\n        for (uint i=0; i<usersAchievements[achievements[_achievementId].owner].length; i++) {\n            if (_achievementId == usersAchievements[achievements[_achievementId].owner][i]) {\n                delete usersAchievements[achievements[_achievementId].owner][i];\n                break;\n            }\n        }\n        delete achievements[_achievementId];\n        emit Burn(_achievementId);\n    }\n\n    function updateOwner(uint _achievementId, address _newOwner) external {\n        require(msg.sender == achievements[_achievementId].issuer, \"Only issuer can change an owner\");\n        require(achievements[_achievementId].can_owner_be_changed, \"Owner of this achievement can not be changed\");\n        achievements[_achievementId].owner = _newOwner;\n        achievements[_achievementId].can_owner_be_changed = false;\n        emit Update(_achievementId);\n    }\n\n    function changeAchievementVerification(uint _achievementId, bool _newStatus) external {\n        require(msg.sender == achievements[_achievementId].verifier, \"Only verifier can verify or unverify an achievement\");\n        achievements[_achievementId].is_verified = _newStatus;\n        emit Verify(_achievementId);\n    }\n}\n",
  "sourcePath": "contracts/sbt-achievements.sol",
  "type": "contract"
}